:020000040800F2
:1000000040AE002009030008E14100080335000864
:10001000DD41000881090008794C0008000000005B
:10002000000000000000000000000000490200087D
:10003000C511000800000000A5020008F1420008F8
:1000400023030008230300082303000823030008F8
:100050002303000823030008C71100082303000836
:1000600023030008D1110008DB1100082303000856
:1000700023030008230300082303000823030008C8
:1000800023030008230300082303000823030008B8
:10009000230300082303000823030008E5110008D8
:1000A0002303000835440008230300082303000845
:1000B0002303000823030008230300082303000888
:1000C0002303000823030008230300082303000878
:1000D00023030008594C00082303000823030008E9
:1000E0002303000823030008230300082303000858
:1000F0002303000823030008230300082303000848
:100100002303000823030008230300082303000837
:100110002303000823030008230300082303000827
:100120002303000823030008230300082303000817
:100130002303000823030008230300082303000807
:100140009D090008AD0900082303000823030008E7
:10015000230300082303000823030008694C000858
:1001600023030008230300082303000823030008D7
:1001700023030008230300082303000800000000F5
:10018000230300082303000800F002F800F04CF8F5
:100190000AA090E8000C82448344AAF10107DA45E2
:1001A00001D100F041F8AFF2090EBAE80F0013F0E8
:1001B000010F18BFFB1A43F001031847947E00009B
:1001C000B47E00000A4410F8014B14F00F0508BF7C
:1001D00010F8015B240908BF10F8014B6D1E05D013
:1001E00010F8013B6D1E01F8013BF9D1641E03D0EC
:1001F000641E01F8015BFBD19142E4D3704700001B
:100200000023002400250026103A28BF78C1FBD81F
:10021000520728BF30C148BF0B6070471FB507F0B9
:1002200060FE1FBD10B510BD00F0E4F91146FFF7E8
:10023000F5FF05F0E3FB00F002FA03B4FFF7F2FF6D
:1002400003BC00F005FA00002C4B19680868B0E800
:10025000F04F80F30988BFF36F8F4FF0000080F3F9
:10026000118870470000000008480068006880F3AB
:1002700008884FF0000080F3148862B661B6BFF3BF
:100280004F8FBFF36F8F00DF00BF00BF08ED00E0AE
:10029000DFF80C00016841F470010160704700BF95
:1002A00088ED00E0EFF30980BFF36F8F134B1A68FE
:1002B0001EF0100F08BF20ED108A20E9F04F1060EB
:1002C00009B44FF0500080F31188BFF34F8FBFF394
:1002D0006F8F06F01FFB4FF0000080F3118809BC00
:1002E00019680868B0E8F04F1EF0100F08BFB0ECB6
:1002F000108A80F30988BFF36F8F7047D400002005
:10030000EFF305807047000009488047094800471F
:10031000FEE7FEE7FEE7FEE7FEE7FEE7FEE7FEE7B5
:10032000FEE7FEE704480549054A064B7047000012
:10033000D143000889010008406E002040AE002033
:10034000408E0020408E002053EA020C00F06980AD
:100350002DE9F04B4FF00006002B1FBFB3FA83F5D9
:1003600003FA05F424FA05F65E4012BF1643B2FA0A
:1003700082F502FA05F4C5F120051EBF22FA05FC3C
:1003800044EA0C04203556EA044C4FEA144418BFE2
:10039000641C4FF000084FF00009904271EB030C11
:1003A00039D3002919BFB1FA81F701FA07F6B0FA7B
:1003B00080F700FA07F6C7F120071EBF20FA07FCF6
:1003C00046EA0C062037B6FBF4FCA7EB0507103F06
:1003D00007F01F0BCBF120060CFA0BFB2CFA06F6EC
:1003E00044BFB3460026202FA4BF5E464FF0000B4B
:1003F0005BEA060C08BF4FF0010B19EB0B09ABFBD6
:10040000027C48EB0608C01B06FB02CC0BFB03CCAE
:1004100071EB0C01C1E70B46024641464846BDE878
:10042000F08B13B54FF000004FF00001AFF30080E8
:10043000BDE81C407047032A40F2308010F0030CE6
:1004400000F0158011F8013BBCF1020F624498BF27
:1004500011F801CB00F8013B38BF11F8013BA2F1C4
:10046000040298BF00F801CB38BF00F8013B11F03F
:10047000030300F02580083AC0F0088051F8043BDF
:10048000083A51F804CBA0E80810F5E7121D5CBF4C
:1004900051F8043B40F8043BAFF30080D20724BF7F
:1004A00011F8013B11F801CB48BF11F8012B24BF13
:1004B00000F8013B00F801CB48BF00F8012B704762
:1004C00010B5203AC0F00B80B1E81850203AA0E8EF
:1004D0001850B1E81850A0E81850BFF4F5AF5FEA23
:1004E000027C24BFB1E81850A0E8185044BF18C9D6
:1004F00018C0BDE810405FEA827C24BF51F8043B7D
:1005000040F8043B08BF7047D20728BF31F8023BD0
:1005100048BF11F8012B28BF20F8023B48BF00F864
:10052000012B704702F0FF0343EA032242EA024232
:1005300000F037B84FF0000200B5134694469646D7
:10054000203922BFA0E80C50A0E80C50B1F12001E6
:10055000BFF4F7AF090728BFA0E80C5048BF0CC094
:100560005DF804EB890028BF40F8042B08BF7047F2
:1005700048BF20F8022B11F0804F18BF00F8012B64
:10058000704770477047704710B500F02BF800684F
:1005900010BD10B5044600F025F8046010BD4FF002
:1005A00000020429C0F0128010F0030C3FF4C4AF25
:1005B000CCF1040CBCF1020F18BF00F8012BA8BF4E
:1005C00020F8022BA1EB0C01FFF7B6BF5FEAC17C5C
:1005D00024BF00F8012B00F8012B48BF00F8012BC5
:1005E0007047000000487047E06D002000487047E9
:1005F000E06D00207546FFF7F9FFAE46050069463D
:10060000534620F00700854618B020B5FFF78AFE54
:10061000BDE820404FF000064FF000074FF0000803
:100620004FF0000B21F00701AC46ACE8C009ACE884
:10063000C009ACE8C009ACE8C0098D46704710B5E8
:100640000446AFF300802046BDE81040FFF7F5BD3B
:1006500001491820ABBEFEE72600020070470000EB
:1006600010B501221146024801F02CFC10BD00001B
:100670000004024010B500220121024801F022FCD2
:1006800010BD00000004024070B504460D4600BFD6
:100690002946204600F008F80028F9D10120014938
:1006A000087070BD4400002070B504460D461C481B
:1006B000046000201B49087004F0E6FF194909781E
:1006C00008431849087005F095F816490978084359
:1006D000144908701DB1144800F070F91CE09FED3A
:1006E000130A114880ED090A9FED110A80ED0A0AEC
:1006F0009FED100A80ED0B0A9FED0F0A80ED0F0AA7
:1007000090ED0F0ADFED0D0A80EE801A80ED081AD9
:100710009FED0B0A80ED070A0248007870BD0000CB
:100720008400002048000020C40A0020ED66723BCF
:1007300066FCC5BBF6C8AA3AD4D21C41C3F51C411D
:10074000000020422DE9FC4105460E4617460020D8
:100750000090019000F00AF9922000F0E1F80622E2
:100760006946122000F0BCF800F0F6F8002005E021
:100770001DF80010574A1154411CC8B20828F7DB75
:100780009DF80100000200B29DF8001040EA01044B
:10079000604200EE100AB8EEC00A4F48D0ED000AE1
:1007A00020EE200A86ED000A9DF80300000200B248
:1007B0009DF8021040EA0104604200EE100AB8EE13
:1007C000C00A4548D0ED000A20EE200A86ED010A55
:1007D0009DF80500000200B29DF8041040EA0104F3
:1007E00000EE104AB8EEC00A3B48D0ED000A20EEF9
:1007F000200A86ED020AFFF73DFF08226946002025
:1008000000F06EF8FFF72CFF9DF800000F283AD19A
:100810009DF80300000200B29DF8021040EA0104B6
:10082000604200EE100AB8EEC00A2C48D0ED000A73
:1008300020EE200A85ED000A9DF80500000200B2B6
:100840009DF8041040EA0104604200EE100AB8EE80
:10085000C00A2248D0ED000A20EE200A85ED010AE8
:100860009DF80700000200B29DF8061040EA01045E
:1008700000EE104AB8EEC00A1848D0ED000A20EE8B
:10088000200A85ED020A00F071F8A22000F048F875
:1008900002226946222000F023F800F05DF89DF85E
:1008A0000000C0009DF8011040EA6114B4F5806FAB
:1008B00002DBA4F5006004B200EE104AF8EEC00AB4
:1008C000B4EE001AB3EE070A00EE810A87ED000AC3
:1008D000BDE8FC8174000020380000203C000020AE
:1008E00070B506460C46154646F0800000F018F834
:1008F00006E0552000F014F82070641C681EC5B294
:10090000002DF6D170BD70B504460D4644F0800050
:1009100000F006F8552000F003F8287070BD0000C4
:1009200001B582B04FF47A70012301AA02A90090A8
:100930000348006801F0F8FF9DF804000EBD0000B8
:100940008400002070B505460C462846FFF7E8FFF6
:100950002046FFF7E5FF70BD10B5012210210248C7
:1009600001F0B0FA10BD00000000024010B50022F6
:100970001021024801F0A6FA10BD0000000002405C
:1009800000BFFEE710B5044802F02AF9082102482A
:1009900002F035FB10BD0000B809002010B5024878
:1009A00000F083FD10BD00007808002010B502485B
:1009B00000F07BFD10BD00007808002070B52DED23
:1009C000048B88B004460020069007909FEDFE0A35
:1009D000B0EE408A9FEDFC0AB0EE409A9FEDFA0A15
:1009E000F0EE408A00F028FBF84880ED000A00BFD6
:1009F00000F022FBF548D0ED000A30EE600AF2EE7E
:100A0000040AB4EEE00AF1EE10FA14DD9FEDF00AEC
:100A100084ED090A9FEDEF0A84ED0A0A9FEDEE0AC4
:100A200084ED0B0A9FEDED0A84ED0F0A9FEDEC0AB1
:100A300084ED070A57E29FEDEB0A00F0DFFA9FED25
:100A4000E20A84ED0F0A9FEDE00A84ED090A9FEDAA
:100A5000DE0A84ED0A0A9FEDDC0A84ED0B0A00260B
:100A600073E1FFF783FF9220FFF75AFF062206A9E2
:100A70001220FFF735FFFFF76FFF9DF81900000206
:100A800000B29DF8181040EA010500EE105AB8EEC9
:100A9000C00AD548D0ED000A20EE200A84ED000AF5
:100AA0009DF81B00000200B29DF81A1040EA0105F3
:100AB00000EE105AB8EEC00ACB48D0ED000A20EE86
:100AC000200A84ED010A9DF81D00000200B29DF885
:100AD0001C1040EA010500EE105AB8EEC00AC248E8
:100AE000D0ED000A20EE200A84ED020AD4ED000ABF
:100AF00060EEA00A94ED011AD4ED011A41EE210A2C
:100B000094ED021AD4ED021A41EE210AB0EE600A09
:100B100004F0E2FCB0EE408A94ED0F0A30EE080AD1
:100B200084ED0F0AFFF7A6FD082206A90020FFF7B3
:100B3000D7FEFFF795FD9DF818000F2850D19DF8BE
:100B40001B00000200B29DF81A1040EA010500EEF9
:100B5000105AB8EEC00AA548D0ED000A20EE200ACF
:100B600084ED030A94ED090AD4ED030A30EE200A5D
:100B700084ED090A9DF81D00000200B29DF81C10CA
:100B800040EA010500EE105AB8EEC00A9748D0EDD1
:100B9000000A20EE200A84ED040A94ED0A0AD4ED3E
:100BA000040A30EE200A84ED0A0A9DF81F000002B4
:100BB00000B29DF81E1040EA010500EE105AB8EE92
:100BC000C00A8A48D0ED000A20EE200A84ED050A0A
:100BD00094ED0B0AD4ED050A30EE200A84ED0B0AE1
:100BE00006BBF0EE488AB0EE489A002017E004F108
:100BF0000C0101EB800191ED000A03A901EB8001DA
:100C000081ED000A04F10C0101EB800191ED000A75
:100C1000694601EB800181ED000A411CC8B203283E
:100C2000E5DB49E0B4EEE88AF1EE10FA01DDF0EE22
:100C3000488AB4EEC98AF1EE10FA01D2B0EE489AB1
:100C4000002037E004F10C0101EB800191ED000A76
:100C500003A901EB8001D1ED000AB4EEE00AF1EE48
:100C600010FA0ADD04F10C0101EB800191ED000A9C
:100C700003A901EB800181ED000A04F10C0101EBF5
:100C8000800191ED000A694601EB8001D1ED000A77
:100C9000B4EEE00AF1EE10FA0AD204F10C0101EB15
:100CA000800191ED000A694601EB800181ED000AA7
:100CB000411CC8B20328C5DB38EEC90A4C4880ED98
:100CC000000A002012E003A901EB800191ED000A67
:100CD000694601EB8001D1ED000A30EE600A45491A
:100CE00001EB800181ED000A411CC8B20328EADB58
:100CF0003F4890ED000AF6EE000AB4EEE00AF1EE8D
:100D000010FA1BDC3B4890ED000ADFED3B0AB4EE25
:100D1000E00AF1EE10FA11DC90ED010ADFED360A7F
:100D2000B4EEE00AF1EE10FA08DC90ED020ADFED15
:100D3000320AB4EEE00AF1EE10FA00DD0AE09FEDAF
:100D40002F0A00F05BF9701C86B22D48008886429D
:100D5000FFF687AE00BFD4ED0F0A2948008800EEE9
:100D6000100AB8EE400A80EE801A84ED0F1A0020B7
:100D700015E004F1240101EB8001D1ED000A2049C6
:100D8000098800EE101AB8EE400A80EE801A04F1CD
:100D9000240101EB800181ED001A411CC8B2032837
:100DA000E7DBFFF7E3FDA220FFF7BAFD022206A969
:100DB0002220FFF795FDFFF7CFFD9DF81800C0003A
:100DC0009DF819101EE00000000000007C000020CB
:100DD000ED66723B66FCC5BBF6C8AA3AD4D21C418C
:100DE000000020420AD7A33B380000203C0000202E
:100DF00040000020B80A00209A99193E6F12033A69
:100E00008000002040EA6115B5F5806F02DBA5F592
:100E1000006005B200EE105AF8EEC00AB4EE001AF7
:100E2000B3EE070A00EE810A84ED070A3448008811
:100E3000401C00B232490880324890ED000AF6EEBC
:100E4000000AB4EEE00AF1EE10FA3FF7D1AD94EDEE
:100E50000F0ADFED2D0A30EE600AB0EEC00AF6EEA2
:100E6000000AB4EEE00AF1EE10FAEEDC274890ED4D
:100E7000000A5FED1F0AB4EEE00AF1EE10FAE4DCBE
:100E800090ED010A5FED240AB4EEE00AF1EE10FAEB
:100E9000DBDC90ED020A5FED280AB4EEE00AF1EE29
:100EA00010FAD2DC94ED090AB0EEC00ADFED180AA0
:100EB000B4EEE00AF1EE10FAC7DC94ED0A0AB0EEE7
:100EC000C00ADFED130AB4EEE00AF1EE10FABCDC62
:100ED00094ED0B0AB0EEC00ADFED0D0AB4EEE00AA5
:100EE000F1EE10FAB1DC00BF94ED0F0ADFED090A54
:100EF00080EE801A84ED081A08B0BDEC048B70BD3A
:100F00004600002040000020CDCC1C41B80A002043
:100F10000AD7233CC3F51C4101680A4BCAB2103AF8
:100F2000A3FB02321209084B9B5CC365032A04D958
:100F30006FF30901091D816502E06FF30901816505
:100F4000806D7047ABAAAAAA487F0008014600201E
:100F50008A6A8B69002B0FD0B3F5005F1DD08AB36E
:100F6000012A30D0022A2ED0032A04D1C96A11F0F6
:100F7000807F00D0012070471AB1012A07D0022AD1
:100F8000F9D1C96A11F0807FF5D001207047C96A94
:100F9000B1F1C07FFAD1012070475AB1012A0BD0BC
:100FA000022A07D0032AF7D1C96AB1F1C07FF3D171
:100FB0000120704701207047C96A11F0807FFAD084
:100FC00001207047FFE701207047000008B508487E
:100FD00040680090074900980968884204D2064892
:100FE0000068401C0449086002490098086008BD78
:100FF000001000E0A00000209C0000200C49486880
:10100000F0EE400A00BF0A494968091A01EE101AB9
:10101000F8EE411A074991ED001AB8EE411A20EE98
:10102000811AF4EEC11AF1EE10FAECD37047000009
:10103000001000E09000002010B52DED028B00F0B4
:1010400059F80F4890ED000AB8EE400A808800EE8B
:10105000900AF8EE600A9FED0B1A00EE810A08482C
:10106000C08800EE900AF8EE600A9FED071A00EEC5
:10107000810AB0EE408AB0EE480ABDEC028B10BD8A
:10108000880000206F12833ABD37863512490968FF
:1010900041F08071104A11600021104A51601146E0
:1010A000096841F0010111600D4941430D4A116089
:1010B000114609684FF47A72B1FBF2F10A4A1160E5
:1010C00008490968064AB1FBF2F1084A116000219B
:1010D000074A116070470000FCED00E0001000E0DE
:1010E00040420F0090000020940000209800002053
:1010F0009C00002038B5294840680090FFF766FF43
:10110000274800684FF0FF31A0FB01310098181804
:1011100041F10001234A03C2234800232149026808
:1011200003C9FFF711F9214A03C220480CC81E4821
:1011300000680024A2FB001503FB005002FB040220
:101140001848D0E90030591A60EB0200184AC2E989
:101150000010164800681749086017480023144912
:10116000026803C9FFF7F0F81249888008468088B2
:101170001149096841430E48D0E90030591A60F11D
:1011800000000E4AC2E900100D4800230B49026816
:1011900003C9FFF7D9F80749C88038BD001000E03F
:1011A0009C000020A800002090000020B00000203B
:1011B000B80000208800002094000020C00000201B
:1011C00098000020704710B5012000F061FD10BDAF
:1011D00010B5082000F05CFD10BD10B5102000F027
:1011E00057FD10BD10B5202000F052FD10BD704716
:1011F00090F82020012A07D0022A05D0416A41F444
:1012000080214162012070470068426911434161B9
:101210000020704790F82020012A07D0022A05D02C
:10122000416A41F480214162012070474248D0F870
:10123000002242F00102C0F80022D0F8002222F47D
:101240007C52C0F80022D0F800224B6A42EA032206
:10125000C0F800220A7D012302F01F0203FA02F205
:10126000D0F81C329343C0F81C32CB69D3B9D0F804
:101270000C329343C0F80C32B1F80CC04B686CF3DD
:101280001F43D1F814C000EBCC0CCCF84032B1F8BD
:1012900008C00B686CF31F43D1F814C000EBCC0CF2
:1012A000CCF84432CB69012B1AD1D0F80C3213435D
:1012B000C0F80C32B1F800C04B686CF31F43D1F892
:1012C00014C000EBCC0CCCF84032B1F808C0CB68AD
:1012D0006CF31F43D1F814C000EBCC0CCCF84432B3
:1012E0008B697BB1D0F804321343C0F804320B6928
:1012F00073B1D0F814321343C0F81432096A0129CB
:101300000CD010E0D0F804329343C0F80432EEE77A
:10131000D0F814329343C0F81432EFE7D0F81C121F
:101320001143C0F81C12D0F8001221F00101C0F8DE
:10133000001200207047000000640040704710B4A5
:1013400090F820C0BCF1010F09D0BCF1020F06D00B
:10135000416A41F48021416210BC0120704739B1DB
:10136000D0F800C0DCF810C01CF0030F7DD006E000
:10137000D0F800C0DCF80CC01CF0030F7BD04FF499
:10138000D87C04680CEB011C54F80C4004F00404F5
:101390009460002C7DD0046854F80C40E40854603C
:1013A000046854F80CC0CCF3400CC2F80CC04FF4E5
:1013B000DA7C04680CEB011C54F80C4004F00F04B8
:1013C0001461046854F80C40C4F307249461046861
:1013D00054F80CC04FEA1C4CC2F814C04FF4DC7235
:1013E000D0F800C002EB01125CF802C083F800C024
:1013F000D0F800C05CF802C04FEA1C2C83F801C092
:10140000D0F800C05CF802C04FEA1C4C83F802C060
:10141000D0F800C05CF80220120EDA704FF4DE72D1
:10142000D0F800C002EB01125CF802C083F804C0DF
:10143000D0F800C05CF802C04FEA1C2C83F805C04D
:10144000D0F800C05CF802C04FEA1C4C83F806C01C
:10145000D0F800C05CF80220120EDA71F9B1006811
:10146000016941F02001016102E00BE003E010E0BE
:1014700010BC00207047416A41F40011416210BC69
:1014800001207047416A41F40011416210BC012003
:101490007047046854F80C40640D146080E70068DD
:1014A000C16841F02001C160DEE72DE9F05F05462B
:1014B000002428684669D0F804908768D0F80CA00A
:1014C000D0F810B0D0F8188016F0010F54D017F0F3
:1014D000010F17D00121816017F0020F03D02846B9
:1014E00000F032FB0EE017F0040F02D04FF400645E
:1014F00008E017F0080F02D04FF4805402E02846AD
:1015000000F021FB17F4807F19D029684FF4807018
:10151000886017F4007F03D0284600F017FB0EE028
:1015200017F4806F02D044F4005408E017F4006F01
:1015300002D044F4804402E0284600F006FB17F491
:10154000803F19D029684FF48030886017F4003F3D
:1015500003D0284600F0FCFA0EE017F4802F02D0EA
:1015600044F4004408E017F4002F02D044F480341F
:1015700002E0284600F0EBFA16F0080F07D01AF048
:10158000100F04D044F4007429681020C86016F0CD
:10159000040F4FF0080707D01AF0080F04D028688E
:1015A000C760284600F0B2F916F0020F07D028688D
:1015B000C06810F0030F02D0284600F0A9F916F019
:1015C000400F07D01BF0100F04D044F4806429684A
:1015D0001020086116F0200F07D01BF0080F04D070
:1015E00028680761284600F079FA16F0100F07D036
:1015F0002868006910F0030F02D0284600F06FFA47
:1016000016F4003F08D019F0100F05D029681020FB
:101610004860284600F064FA16F4803F07D019F0BD
:10162000080F04D028684760284600F092FA16F4A4
:10163000004F4AD019F0040F44D016F4807F04D034
:1016400018F0010F01D044F0010416F4007F04D01B
:1016500018F0020F01D044F0020416F4806F04D099
:1016600018F0040F01D044F0040416F4006F29D0E0
:1016700018F0700F26D008F07000402815D006DC56
:10168000102809D020280AD0302816D10AE0502886
:101690000ED0602811D10EE044F008040DE044F0B3
:1016A00010040AE044F0200407E044F0400404E0A1
:1016B00044F0800401E044F480742868816921F0DA
:1016C00070018161296804204860002C05D0686A97
:1016D000204368622846FFF731FEBDE8F09F70B5F1
:1016E0000446002C03D094F8200010B104E001203F
:1016F00070BD204600F0A8F82068016821F00201C2
:10170000016000F0E7FB0546206840684FF00506E1
:1017100010F0020F11D000F0DDFB401B0A2807D9A2
:10172000606A40F40030606284F82060012070BD7F
:101730002068406810F0020FEDD12068016841F088
:101740000101016000F0C6FB05462068406810F00A
:10175000010F11D100F0BEFB401B0A2807D9606AB7
:1017600040F40030606284F82060012070BD206881
:10177000406810F0010FEDD0207E01283FD0206896
:10178000016821F080010160607E01283DD0206861
:10179000016821F040010160A07E01283BD0206853
:1017A000016821F020010160E07E012839D0206825
:1017B000016841F010010160207F012837D02068C6
:1017C000016821F008010160607F012835D02068A0
:1017D000016821F004010160E168A06862690843C2
:1017E0002169114308436168491E08432168C861A3
:1017F00000206062012084F82000002070BD206875
:10180000016841F080010160BEE72068016841F095
:1018100040010160C0E72068016841F020010160DB
:10182000C2E72068016821F010010160C4E7206868
:10183000016841F008010160C6E72068016841F0D5
:1018400004010160C8E7000010B586B00446142109
:1018500001A8FEF76FFE2A49206888424ED100BFDA
:10186000002000902748006840F08060254908600B
:101870000846006800F08060009000BF00BF00BF15
:10188000002000900846006840F00070086008469C
:10189000006800F00070009000BF00BF00BF002093
:1018A000009018481038006840F0020015491039BF
:1018B00008600846006800F00200009000BF00BF0A
:1018C00060200190022002900020039003200490E9
:1018D0000920059001A90C4800F0E6F90022052135
:1018E000402000F09DFB402000F08CFB00220521F1
:1018F000412000F095FB412000F084FB06B010BDB4
:101900000068004040380240000402407047000078
:1019100070B588B005466049286888427ED15F4B23
:1019200001AA00215E48FFF70AFD40F25921019803
:101930008842F3D1002400260598082812D100BF60
:101940000BE05648005D5749096808705548006823
:10195000401C54490860601CC4B2082CF1DB701CA8
:10196000C6B295E005980628FBD100240BE04B4851
:10197000005D4C49096808704A480068401C4949A4
:101980000860601CC4B2062CF1DB4748454908607A
:10199000162201464548FEF74EFD454890ED130AD4
:1019A000DFED440A30EE200ABCEEC00A10EE100A49
:1019B000414908803D48B0F9000000EE900AF8EE79
:1019C000E00AB0EE600A3D493D4804F04FF8BCEE35
:1019D000C00A10EE100A3B4908803448B0F90200F2
:1019E00000EE900AF8EEE00AB0EE600A3649374899
:1019F00004F03CF8BCEEC00A10EE100A31494880F1
:101A00005520334908702F490888C11700EB116130
:101A1000090A2F4A51702B49088800E039E0C117A4
:101A200000EB11610912A0EB012191702549488852
:101A3000C11700EB1161090AD17022494888C1170A
:101A400000EB11610912A0EB012111711A490888FC
:101A5000C11700EB1161090A517117490888C117B4
:101A600000EB11610912A0EB012191715520114683
:101A7000C87100BF4FF0FF3308221549154801F027
:101A8000D1FC0028F6D114480068401C12490860B7
:101A900000BF08B070BD0000006800406701002072
:101AA000780800201C0000207D0100209301002008
:101AB000040B002000003443180000200800002020
:101AC000AC010020000000200C000020B801002024
:101AD00048010020380A0020140000207047704799
:101AE000704770B5044694F82000012805D0606A5C
:101AF00040F400206062012070BD022084F82000C4
:101B00002068016821F00101016000F0E3F9054659
:101B10002068406810F0010F12D000F0DBF9401B84
:101B20000A2808D9606A40F400306062052084F811
:101B30002000012070BD2068406810F0010FECD13A
:101B40000020606270BD70477047704770477047F3
:101B50007047704790F83510022903D08021416505
:101B600001207047052180F835100068016821F0D8
:101B700001010160002070472DE9F041044600F0AA
:101B8000A9F90546DCB1002684F83460022084F807
:101B900035002068016821F00101016020680068BB
:101BA00010F0010F13D000F095F9401B052809D95A
:101BB00020206065032084F83500BDE8F081012015
:101BC000BDE8F0812068006810F0010FEBD12168BA
:101BD0000868234A1040A3686268D4F810C01A430A
:101BE000E36843EA0C031A4363691A43A3691A437F
:101BF000E3691A43236A1A431043626A042A03D131
:101C0000236BE26A1A43104308602068406920F0A1
:101C10000701606A40EA0105012704280ED1A06A85
:101C20000543E06A50B12046FFF790F930B14020FB
:101C3000606584F835700120BDE8F0812068456159
:101C40002046FFF769F994F85C103F2202FA01F18F
:101C50008160666584F835700020BDE8F081000081
:101C60003F8010F070B5044600F034F90546B4F139
:101C7000FF3F02D004480078044400F02BF9401BD9
:101C8000A042FAD370BD0000C800002070470000D9
:101C900010B504490A68024202D00860FFF7F6FF57
:101CA00010BD0000143C01402DE9F84F0022DFF880
:101CB0000082DFF80092DFF800A24FF0030E0F273A
:101CC000012303FA02F50B682B40AB427DD1D1F81A
:101CD00004C0BCF1020F02D0BCF1120F12D14FEAC6
:101CE000D20C00EB8C0CDCF820605407E40E07FAF1
:101CF00004FB26EA0B06D1F810B00BFA04F43443C7
:101D0000CCF8204006684FEA420C0EFA0CF4A643C9
:101D100091F804B00BF0030B0BFA0CFB4BEA060630
:101D200006604E68012E05D0022E03D0112E01D080
:101D3000122E11D18668A643D1F80CB00BFA0CFB19
:101D40004BEA06068660466826EA05050E79C6F364
:101D50000016964035434560C56825EA04048D6841
:101D600005FA0CFC4CEA040CC0F80CC0D1F804C015
:101D70001CF0805F7DD0D8F800C04CF4804CC8F8CF
:101D800000C0D8F800C00CF4804CCDF800C022F0A0
:101D9000030C0CF1804404F59834D4F808C8950776
:101DA0002D0F07FA05F62CEA0606A0F1804CBCF5CB
:101DB000003C64D0A0F1804CBCF5013C62D0A0F1A5
:101DC000804CBCF5023C60D000E052E0A0F1804CB9
:101DD000BCF5033C5CD0A0F1804CBCF5043C5AD06F
:101DE000A0F1804CBCF5053C58D0A0F1804CBCF56E
:101DF000063C56D0A0F1804CBCF5073C54D04FF0C7
:101E0000080C0CFA05FC4CEA060CC4F808C8D9F812
:101E100000C02CEA030C4C6814F4803F01D04CEA5B
:101E2000030CC9F800C0254CD4F800C02CEA030C00
:101E30004D6815F4003F01D04CEA030CC4F800C013
:101E4000DAF800C02CEA030C4C6814F4801F01D0AF
:101E50004CEA030CCAF800C0194CD4F800C02CEAB4
:101E6000030C4D6815F4001F01D04CEA030CC4F8B4
:101E700000C0521C102AFFF423AFBDE8F88F4FF0CA
:101E8000000CBEE74FF0010CBBE74FF0020CB8E7C7
:101E90004FF0030CB5E74FF0040CB2E74FF0050C20
:101EA000AFE74FF0060CACE74FF0070CA9E70000D6
:101EB00044380240003C0140083C0140043C0140E1
:101EC0000C3C0140002A01D0816170470904816106
:101ED000704700000148806870470000C80000207B
:101EE000024881680278114481607047C800002070
:101EF00010B50B48016841F400710160016841F4BC
:101F000080610160016841F480710160032000F08C
:101F1000BBF8002000F006F800F04AF8002010BDE1
:101F2000003C024070B588B004460025002600221F
:101F30002146192000F074F8192000F063F800BF62
:101F4000002001901648006840F001001449086024
:101F50000846006800F00100019000BF00BF02A920
:101F600003A800F05DF900F08FF945000D48B5FBBE
:101F7000F0F0461E0C480D49086040F2E7310B486E
:101F8000C160466000210161816000F0F2FD20B96E
:101F9000064800F037FE08B070BD0120FBE70000E6
:101FA0004438024040420F0000000140780A0020FF
:101FB00008B500BF002000901148006840F4804040
:101FC0000F4908600846006800F48040009000BF98
:101FD00000BF00BF00200090081F006840F0805044
:101FE000091F08600846006800F08050009000BF9C
:101FF00000BF00220F21901E00F012F808BD000063
:102000004438024000280ADB00F01F01012202FAD6
:1020100001F14009800000F1E020C0F80011704794
:1020200010B4184B1B68C3F30223C3F1070CBCF1B7
:10203000040F01D94FF0040C1C1D072C01D2002302
:1020400000E0DB1E012404FA0CFCACF1010C0CEAEC
:102050000101994004FA03F35B1E1A401143002862
:1020600006DB00F1E020090180F8001410BC704785
:1020700000F00F0000F1E020090180F8141D10BCF1
:10208000704700000CED00E000F00700064A116800
:102090004FF6FF03194041EA002040F0FD7040F088
:1020A00080601060704700000CED00E02DE9F04703
:1020B00004460D46002C13D0DFF85091D9F80000EB
:1020C000EFB200F00F00A8420DD289F80070D9F8E5
:1020D000000000F00F00A84205D00120BDE8F08705
:1020E0000120BDE8F0872068494E10F0020F14D09F
:1020F00010F0040F03D0306840F4E05030602078D6
:1021000010F0080F03D0306840F460403060306851
:10211000A16820F0F00008433060207810F0010F33
:102120003ED060683B49012808D002280DD0032822
:102130000BD0096811F0020F28D00AE0096811F4E9
:10214000003F06D10120BDE8F087096811F0007F4B
:1021500019D0316821F0030108433060FFF7BAFE5F
:1021600080463068616800F00C00B0EB810F17D03A
:1021700041F2883AFFF7AEFEA0EB0800504508D9BF
:102180000320BDE8F0870120BDE8F0870120BDE80D
:10219000F0873068616800F00C00B0EB810FE9D186
:1021A000D9F8000000F00F00A8420AD989F80070A1
:1021B000D9F8000000F00F00A84202D00120BDE8CD
:1021C000F087207810F0040F05D03068E16820F423
:1021D000E05008433060207810F0080F06D03068D7
:1021E000216920F4604040EAC100306000F05CF8F2
:1021F0003168094AC1F30311515CC84007490860BE
:102200000020FFF78FFE0020BDE8F087003C024071
:102210000838024000380240307F00082C000020BF
:102220000F2202600B4A136803F003034360136834
:1022300003F0F0038360136803F4E053C360126893
:1022400002F46042D20802610348006800F00F0007
:102250000860704708380240003C024001480068AE
:10226000704700002C00002000B5FFF7F7FF04497D
:102270000968044AC1F38221515CC84000BD0000D6
:1022800008380240407F000800B5FFF7E7FF044927
:102290000968044AC1F34231515CC84000BD0000E6
:1022A00008380240407F000810B51748006810F059
:1022B0000C01164816D0164B042912D0082911D14A
:1022C000144C216801F03F02216811F4800F0AD0FC
:1022D0002068C0F38810A0FB03010023FEF734F848
:1022E00009E0184610BD21680023C1F38811A1FB45
:1022F0000001FEF729F82168C1F30141491C49009A
:10230000B0FBF1F010BD0000083802400024F400DA
:10231000001BB700043802402DE9F84F0446002C9A
:1023200010D02078FA4D10F0010F64D0F948016800
:1023300001F00C0104290DD0006800F00C00082801
:1023400003D011E00120BDE8F88FF348006810F4D5
:10235000800F09D0286810F4003F4CD06068002836
:1023600049D10120BDE8F88F6068B0F5803F14D0F6
:10237000B0F5A02F16D0286820F480302860286897
:1023800020F480202860606810B3FFF7A3FD0646A4
:10239000286810F4003F0ED02DE0286840F480300B
:1023A0002860F0E7286840F480202860286840F41E
:1023B00080302860E7E7FFF78DFD801B642802D995
:1023C0000320BDE8F88F286810F4003FF3D012E036
:1023D000FFF780FD0646286810F4003F0BD0FFF79A
:1023E00079FD801B642802D90320BDE8F88F286896
:1023F00010F4003FF3D12078C84F10F0020F4FF0D7
:10240000000856D0C348016811F00C0F15D00068C1
:1024100000F00C00082804D1BF48006810F4800FB9
:102420000BD0E06878B301203860FFF753FD064613
:10243000286810F0020F12D01DE0286810F0020F7B
:1024400005D0E068012802D00120BDE8F88F286897
:10245000216920F0F80040EAC100286029E0FFF778
:1024600039FD801B022802D90320BDE8F88F2868B7
:1024700010F0020FF3D02868216920F0F80040EA3C
:10248000C100286015E0FFE7C7F80080FFF722FDD4
:102490000646286810F0020F0BD0FFF71BFD801BCB
:1024A000022802D90320BDE8F88F286810F0020F37
:1024B000F3D1207810F0080F33D09948DFF86492F8
:1024C0006169B9B101210160FFF704FD0646D9F841
:1024D000000010F0020F24D1FFF7FCFC801B022843
:1024E00002D90320BDE8F88FD9F8000010F0020FE0
:1024F000F2D016E0C0F80080FFF7ECFC0646D9F8F1
:10250000000010F0020F0CD0FFF7E4FC801B022843
:1025100002D90320BDE8F88FD9F8000010F0020FAF
:10252000F2D1207810F0040F73D04FF00009DFF8DB
:10253000F8A1DAF8000010F0805F0CD1DAF80000A2
:1025400040F08050CAF80000DAF8000000F0805037
:1025500000904FF00109DFF8D4B1DBF8000010F46F
:10256000807F1AD1DBF8000040F48070CBF80000C7
:10257000FFF7B0FC0646DBF8000010F4807F0CD1BA
:10258000FFF7A8FC801B022802D90320BDE8F88FC2
:10259000DBF8000010F4807FF2D0A068DFF890B183
:1025A000012818D005281DD0DBF8000020F001001C
:1025B000CBF80000DBF8000020F00400CBF80000AE
:1025C000A06838B3FFF786FC0646DBF8000010F081
:1025D000020F14D03CE0DBF8000040F00100CBF823
:1025E0000000EDE7DBF8000040F00400CBF800004D
:1025F000DBF8000040F00100CBF80000E0E7FFF757
:1026000069FC811B41F28830814204D90320BDE876
:10261000F88F26E005E0DBF8000010F0020FEED0A6
:1026200016E0FFF757FC0646DBF8000010F0020F3B
:102630000ED0FFF74FFC811B41F28830814202D956
:102640000320BDE8F88FDBF8000010F0020FF0D196
:10265000B9F1010F05D1DAF8000020F08050CAF876
:102660000000A069E8B32B49096801F00C010829B2
:102670006BD0022810D0C7F86080FFF72BFC04460F
:10268000286810F0007F5ED0FFF724FC001B0228B2
:1026900055D90320BDE8F88FC7F86080FFF71AFC12
:1026A0000646286810F0007F0BD0FFF713FC801B54
:1026B000022802D90320BDE8F88F286810F0007FB7
:1026C000F3D1216AE069A26A0843616A4FF0FF33DF
:1026D000890103EB520241EA0241084394F82C10AD
:1026E00000E030E040EA01610B48016001203866FB
:1026F000FFF7F0FB0446286810F0007F23D1FFF7B6
:10270000E9FB001B022815D90320BDE8F88F1CE067
:1027100000380240083802400438024000004742B6
:10272000800E47427438024040380240007000403A
:1027300070380240286810F0007FE0D003E028687D
:1027400010F0007FA0D10020DFE70120DDE770B5A9
:102750000446002C05D00025A56294F8510010B164
:1027600006E0012070BD84F85050204600F030F89B
:10277000022084F851002068016821F040010160C6
:10278000A168606822690843E168114308436169F0
:102790000843218B01F400710843E1690843216A71
:1027A0000843A16A084321680860A069042101EA7E
:1027B0001040616A0843216848602068C16921F4BB
:1027C0000061C1616565012084F85100002070BD81
:1027D00010B586B00446142101A8FDF7ABFE4B49A5
:1027E000206888427ED100BF0020009048480068E1
:1027F00040F48050464908600846006800F4805064
:10280000009000BF00BF00BF002000904048143877
:10281000006840F002003E4914390860084600682C
:1028200000F00200009000BF00BF00BF0020009039
:102830000846006840F0010008600846006800F0A3
:102840000100009000BF00BF1820019002200290FC
:1028500001200390032004900520059001A92D4834
:10286000FFF722FA802001900220029001200390BD
:10287000032004900520059001A92748FFF714FACA
:102880002648274908604FF0C0604860002124486E
:102890008160C1604FF4806101610021416181610B
:1028A000C1614FF44031016200214162FFF764F9D8
:1028B00008B1FEF79CFC00BF1948E064846300BFC8
:1028C00016481830174908604FF0C0604860402132
:1028D000144881600021C1604FF4806101610021D2
:1028E000416100E010E08161C1614FF4003101629B
:1028F00000214162FFF740F908B1FEF778FC00BF04
:102900000848A064846300BF06B010BD00300140D9
:10291000443802400004024000000240406402408B
:10292000F8080020580900202DE9F84F04460A9EB7
:102930008A4693461F4601254FF0000894F8500040
:1029400001280ED0012084F85000FFF7C3FA814619
:1029500094F85100616801280ED0B1F5827F07D14B
:1029600002E00220BDE8F88FA16809B9042803D06D
:102970004FF0020800F0CBB8BAF1000F1DD0BBF148
:10298000000F1AD0380018D094F85100042802D053
:10299000052084F8510000206065C4F838B0E7874E
:1029A000A787C4F830A0E786A78620646064206803
:1029B000016811F0400F03D006E04FF00108A6E0D7
:1029C000016841F040010160E068B0F5006F05D09A
:1029D0006068002848D0012F46D07EE0606808B1CA
:1029E000012F3AD1206B21680088C860206B801CC1
:1029F0002063E08E401EE0862FE02068816811F0A1
:102A0000020F0DD0E18E59B1012D09D1216B09883A
:102A1000C160206B801C2063E08E401EE086002594
:102A20002068816811F0010F0BD0E18F49B1C068B7
:102A3000A16B0880A06B801CA063E08F401EE08724
:102A40000125FFF747FAA0EB0900B04205D3B6F124
:102A5000FF3F02D04FF0030859E0E08E0028CCD1B0
:102A6000E08F0028C9D13EE0206B21680078087310
:102A7000206B401C2063E08E401EE0862DE0206825
:102A8000816811F0020F0DD0E18E59B1012D09D1ED
:102A9000216B09780173206B401C2063E08E401E7F
:102AA000E08600252068816811F0010F0BD0E18FCE
:102AB00049B1C068A16B0870A06B401CA063E08F97
:102AC000401EE0870125FFF705FAA0EB0900B042A0
:102AD00002D3B6F1FF3F11D186B1E08E0028CED1EE
:102AE000E08F0028CBD14A463146204601F07AFBE0
:102AF00038B14FF001082020606508E04FF003086E
:102B000005E0A06818B92068C168806800900120BD
:102B100084F85100002084F850004046BDE8F88F4A
:102B20007047704730B490F83C20012A1ED0012431
:102B300080F83C40022280F83D200268D2F804C0B0
:102B400093682CF0700C0D6845EA0C0C23F08003A0
:102B500049681943C2F804C00268916080F83D409A
:102B6000002180F83C1030BC0020704730BC0220AF
:102B7000704710B50446002C03D094F83D0010B106
:102B800007E0012010BD002084F83C00204600F042
:102B90000DF8022084F83D00211D206801F052FC50
:102BA000012084F83D00002010BD000008B50A4A4D
:102BB000016891420FD100BF0021009107490968C7
:102BC00041F00401054A11601146096801F0040151
:102BD000009100BF00BF08BD00080040403802401F
:102BE000022180F83D1001688A6802F00702062A77
:102BF00003D00A6842F001020A60012180F83D100A
:102C0000002070470168CA6842F00102CA6000688B
:102C1000816801F00701062903D0016841F0010134
:102C200001600020704770B5044694F83C0001280C
:102C300018D0012584F83C50022084F83D0020681B
:102C4000826822F0770222F47F428260086850286E
:102C500032D00EDC20284DD006DC00284AD01028C7
:102C60004DD147E0022070BD302843D0402846D1E6
:102C700036E060282AD0702806D0B0F5805F3ED0BC
:102C8000B0F5005F3BD10BE0CB684A6889682068EB
:102C900001F04DFC2068816841F0770181602EE0F1
:102CA000CB684A688968206801F041FC2068816827
:102CB00041F48041816022E0CA684968206801F0DF
:102CC00025FD5021206801F03DFC18E0CA684968E4
:102CD000206801F02EFD6021206801F033FC0EE039
:102CE000CA684968206801F011FD4021206801F0A0
:102CF00029FC04E022680146104601F023FC84F818
:102D00003D50002084F83C0070BD704770B504460B
:102D1000206801694FF0000511F0020F17D0C1685B
:102D200011F0020F13D0E91E016101202077206805
:102D3000806910F0030F03D02046FFF7E6FF05E09F
:102D4000204600F0CFF8204600F058F9257720689B
:102D5000016911F0040F18D0C16811F0040F14D0EC
:102D60006FF004010161022020772068806910F46F
:102D7000407F03D02046FFF7C8FF05E0204600F063
:102D8000B1F8204600F03AF925772068016911F082
:102D9000080F18D0C16811F0080F14D06FF00801A7
:102DA0000161042020772068C06910F0030F03D070
:102DB0002046FFF7AAFF05E0204600F093F82046E2
:102DC00000F01CF925772068016911F0100F18D068
:102DD000C16811F0100F14D06FF0100101610820CC
:102DE00020772068C06910F4407F03D02046FFF7A9
:102DF0008CFF05E0204600F075F8204600F0FEF854
:102E000025772068016911F0010F09D0C16811F020
:102E1000010F05D06FF001010161204600F010F9AB
:102E20002068016911F0800F09D0C16811F0800F8E
:102E300005D06FF0800101612046FFF771FE206828
:102E4000016911F0400F09D0C16811F0400F05D0A1
:102E50006FF040010161204600F0FEF82068016932
:102E600011F0200F0BD0C16811F0200F07D06FF0C8
:102E7000200101612046BDE87040FFF752BE70BDE1
:102E800010B586B00446142101A8FDF753FB124982
:102E9000206888421DD100BF002000900F480068C4
:102EA00040F008000D4908600846006800F008007E
:102EB000009000BF00BF4FF48040019002200290BC
:102EC0000020039004900220059001A90448FEF719
:102ED000EBFE06B010BD0000000800403038024094
:102EE000000C0240704770B504460D4694F83C0053
:102EF00001280DD0012684F83C60022084F83D00B2
:102F000042B1042A1AD0082A2DD00C2A53D13EE00F
:102F1000022070BD2946206801F01CFB20688169F1
:102F200041F0080181612068816921F0040181611B
:102F3000206881692A69114381613CE02946206843
:102F400001F040FB2068816941F4006181612068E3
:102F5000816921F480618161206881692A6941EA7F
:102F60000221816127E02946206801F067FB206883
:102F7000C16941F00801C1612068C16921F0040103
:102F8000C1612068C1692A691143C16113E0294602
:102F9000206801F08FFB2068C16941F40061C161C4
:102FA0002068C16921F48061C1612068C1692A6912
:102FB00041EA0221C16184F83D60002084F83C00B0
:102FC00070BD10B50446002C03D094F83D0010B13C
:102FD00007E0012010BD002084F83C00204600F0EE
:102FE0000CF8022084F83D00211D206801F02AFA27
:102FF000012084F83D00002010BD7047704710B5D7
:1030000004460122206801F083FA2168A1F1804082
:10301000B0F5803004D0A1F18040B0F5823003D10A
:10302000486C40F4004048642068816801F0070162
:10303000062903D0016841F001010160002010BDA4
:1030400010B5044603492068884201D1FEF748FFC5
:1030500010BD0000000001407047704710B50446E5
:1030600022681068D168526900F00F03002B0AD162
:1030700010F0200F07D011F0200F04D02046BDE83B
:10308000104001F08BBB002B6BD002F0010301F468
:10309000907C53EA0C0364D010F0010F06D011F4B9
:1030A000807F03D0E36B43F00103E36310F0040F70
:1030B00006D012F0010F03D0E36B43F00203E36389
:1030C00010F0020F06D012F0010F03D0E36B43F0B3
:1030D0000403E36310F0080F06D012F0010F03D0D1
:1030E000E26B42F00802E263E26B002A2ED010F09D
:1030F000200F05D011F0200F02D0204601F04EFB2A
:1031000020684069C0F38010E16B11F0080F00D116
:1031100008B3204601F027FB2068416911F0400FF9
:1031200015D0416921F040014161606B58B11849E7
:103130000165606BFEF70EFD002807D0606B016D26
:10314000BDE8104008472046FFF787FF10BD204626
:10315000FFF783FF10BD2046FFF77FFF0020E063ED
:1031600010BD10F0800F07D011F0800F04D0204662
:10317000BDE8104001F000BD10F0400FF0D011F09C
:10318000400FEDD02046BDE8104001F0FABA000033
:103190005747000870B50446002C04D094F8390055
:1031A000002510B106E0012070BD84F8385020469B
:1031B00000F022F8242084F839002068C16821F446
:1031C0000051C160204601F037FB2068016921F4FD
:1031D000904101612068416921F02A014161206824
:1031E000C16841F40051C160E563202084F83900D2
:1031F00084F83A00002070BD10B586B00446142152
:1032000001A8FDF797F94D492068884256D100BFC3
:10321000002000904A48006840F0100048490860CB
:103220000846006800F01000009000BF00BF00BF1B
:103230000020009042481438006840F002004049E5
:10324000143908600846006800F00200009000BFD2
:1032500000BF00BF002000900846006840F0010059
:1032600008600846006800F00100009000BF00BF41
:1032700080200190022002900120039003200490FE
:103280000720059001A92F48FEF70EFD4FF40070AE
:103290000190022002900120039003200490072057
:1032A000059001A92848FEF7FFFC002205212520F2
:1032B000FEF7B6FE2520FEF7A5FE3CE02349206878
:1032C000884238D100BF002000901D48006840F0BF
:1032D00020001B4908600846006800F020000090AC
:1032E00000BF00BF00BF00200090154814380068E0
:1032F00040F040001249143908600846006800F0A8
:103300004000009000BF00BF4FF4844001900220B5
:10331000029001200390032004900820059001A949
:103320000B48FEF7C1FC002205214720FEF778FE7E
:103330004720FEF767FE06B010BD000000100140F8
:1033400044380240000402400000024000140140E2
:103350000018024090F83A30202B01D0022070472C
:10336000F9B1F2B190F83830012B1CD0816282851E
:10337000C2850021C163222280F83A2080F83810EB
:103380000168CA6842F48072CA6001684A6942F002
:1033900001024A610068C16841F02001C16000205B
:1033A00070470120704702207047000010B50446A6
:1033B000012219491948FFF7CDFF60BB1648007874
:1033C000062827D2DFE800F02603090F151B01228B
:1033D00040211348FEF776FD1CE0002240211048F2
:1033E000FEF770FD16E0012280210D48FEF76AFD10
:1033F00010E0002280210A48FEF764FD0AE0002266
:1034000040210748FEF75EFD002280210448FEF7B8
:1034100059FD00BF00BF10BD1A000020F8090020B0
:10342000002002402DE9F84304460D4691461E4611
:1034300094F83900202802D00220BDE8F8834DB36B
:10344000B9F1000F26D094F83800012825D00120CA
:1034500084F838000027E763212084F83900FEF75C
:1034600039FD8046A4F82490A4F82690E08CA0B3FF
:10347000E08C401EE084A068B0F5805F10D0434629
:10348000002280212046009601F0A9FBF0B1032024
:10349000BDE8F8830120BDE8F8830220BDE8F88389
:1034A0004346002280212046009601F098FB10B18F
:1034B0000320BDE8F88328882168C0F3080048602D
:1034C000206908B16D1C05E0AD1C03E0216815F80A
:1034D000010B4860E08C0028CAD1434600224021FD
:1034E0002046009601F07BFB10B10320BDE8F88375
:1034F000202084F8390084F838700020BDE8F88373
:10350000704700BFFEE70000084890ED030A20EE78
:10351000000AD0ED040A90ED041A00EE810AD0ED05
:10352000050A90ED051A00EE810A7047040B002091
:1035300010B500F08FFB9FED150A154880ED240AA9
:1035400000BF134A4832A2F10C01A1F11800FDF7A7
:10355000F9F800F021F8FFF7D7FFDFED0C0AB4EE21
:10356000E00AF1EE10FA05D29FED0A0A084880ED54
:10357000240A03E00A2003F00FF9E2E700BFB7EEE8
:10358000000A034880ED260A10BD0000CDCCCC3DDA
:10359000040B00200AD7233C70B52DED0A8BFE48A2
:1035A00090ED090AD0ED000A30EE600A80ED0C0AB9
:1035B00090ED0A0AD0ED010A30EE600A80ED0D0AA6
:1035C00090ED0B0AD0ED020A30EE600A80ED0E0A93
:1035D00090ED1B0AD0ED1D0A20EE200AD0ED1C0A4A
:1035E00090ED1A1A00EE810AF8EE000A20EE200A89
:1035F00080ED1E0A90ED1B0AD0ED1A0A20EE200A7B
:10360000D0ED1C0A90ED1D1A00EEC10AF0EE000A82
:1036100020EE200A80ED1F0A90ED1A0AB1EE400A52
:10362000D0ED1A0A20EE200AD0ED1B0A90ED1B1AED
:1036300000EE810AD0ED1C0A90ED1C1A00EE810A02
:10364000D0ED1D0A90ED1D1A00EEC10A80ED200A92
:1036500090ED110AB1EE400AB1EE400AD0ED1A0A1F
:1036600020EE200AD0ED1C0A20EE200AD0ED100A30
:10367000F1EE600A90ED1B1A60EE810A90ED1C1AC3
:1036800000EE810AD0ED100AF1EE600A90ED1A1AF0
:1036900060EE810A90ED1D1A00EE810AD0ED110A4C
:1036A000F1EE600A90ED1B1A60EE810A90ED1D1A92
:1036B00000EE810AF0EE000A60EE200A90ED1A0A90
:1036C00020EE000A90ED1B1AD0ED1B1A01EE210A24
:1036D00090ED1C1AD0ED1C1A01EE610A90ED1D1A36
:1036E000D0ED1D1A01EE610A90ED0F1AB1EE411AEC
:1036F00041EE000AC0ED210A90ED110AB1EE400A38
:10370000D0ED1A0A20EE200AD0ED1B0A20EE200A86
:10371000D0ED0F0AF1EE600A90ED1B1A60EE810AFF
:1037200090ED1C1A00EE810AD0ED0F0AF1EE600A4E
:1037300090ED1A1A60EE810A90ED1D1A00EEC10A92
:10374000D0ED110AF1EE600A90ED1C1A60EE810ACC
:1037500090ED1D1A00EE810AF0EE000A60EE200ADC
:1037600090ED1A0A20EE000A90ED1B1AD0ED1B1AFC
:1037700001EE610A90ED1C1AD0ED1C1A01EE210A2F
:1037800090ED1D1AD0ED1D1A01EE610A90ED101A90
:10379000B1EE411A41EE000AC0ED220A90ED100A86
:1037A000B1EE400AB1EE400AD0ED1A0A20EE200A2E
:1037B000D0ED1B0A20EE200AD0ED0F0AF1EE600AD0
:1037C00090ED1A1A60EE810A90ED1C1A00EE810A43
:1037D000D0ED0F0AF1EE600A90ED1B1A60EE810A3F
:1037E00090ED1D1A00EE810AD0ED100AF1EE600A8C
:1037F00090ED1C1A60EE810A90ED1D1A00EE810A10
:10380000F0EE000A60EE200A90ED1A0A20EE000A9F
:1038100090ED1B1AD0ED1B1A01EE610A90ED1C1AF7
:10382000D0ED1C1A01EE610A90ED1D1AD0ED1D1AA3
:1038300001EE210A90ED111AB1EE411A41EE000A93
:103840009FED560A30EE800A80ED230A90ED110AB2
:10385000B1EE400AB1EE400AD0ED1F0A20EE200A78
:10386000D0ED100AF1EE600A90ED201A00EE810A08
:1038700080ED030A90ED110AB1EE400AD0ED1E0A68
:1038800020EE200AD0ED0F0AF1EE600A90ED201A2A
:1038900000EEC10A80ED040A90ED100AB1EE400A74
:1038A000B1EE400AD0ED1E0A20EE200AD0ED0F0A3C
:1038B000F1EE600A90ED1F1A00EE810A80ED050A14
:1038C00090ED060AD0ED030A30EE200A80ED060ADC
:1038D00090ED070AD0ED040A30EE200A80ED070AC9
:1038E00090ED080AD0ED050A30EE200A80ED080AB6
:1038F00090ED0C0AD0ED030A90ED241A00EE810A37
:10390000D0ED060A90ED251A00EE810A80ED0C0A32
:1039100090ED0D0AD0ED040A90ED241A00EE810A14
:10392000D0ED070A90ED251A00EE810A80ED0D0A10
:1039300090ED0E0AD0ED050A90ED241A00EE810AF2
:10394000D0ED080A90ED251A00EE810A80ED0E0AEE
:1039500090ED1B0AB1EE400AD0ED0C0A20EE200AD1
:10396000D0ED1C0A90ED0D1A00EEC10AD0ED1D0A33
:1039700090ED0E1A00EEC10AD0ED1A0A9FED081A5A
:1039800040EE410AC0ED1A0A90ED1A0AD0ED0C0A79
:1039900020EE200A06E00000040B0020F6281C415F
:1039A0000AD7A33BD0ED1D0A90ED0D1A00EE810A57
:1039B000D0ED1C0A90ED0E1A00EEC10AD0ED1B0AE4
:1039C0001FED091A40EE410AC0ED1B0A90ED1D0AD9
:1039D000B1EE400AD0ED0C0A20EE200AD0ED1A0A12
:1039E00090ED0D1A00EE810AD0ED1B0A90ED0E1A33
:1039F00000EE810AD0ED1C0A1FED171A40EE410AB5
:103A0000C0ED1C0A90ED1C0AD0ED0C0A20EE200A35
:103A1000D0ED1B0A90ED0D1A00EEC10AD0ED1A0A86
:103A200090ED0E1A00EE810AD0ED1D0A1FED241A4A
:103A300040EE410AC0ED1D0AD0ED1A0A60EEA00A60
:103A400090ED1B1AD0ED1B1A41EE210A90ED1C1AC5
:103A5000D0ED1C1A41EE210A90ED1D1AD0ED1D1A71
:103A600041EE210AB0EE600A01F0AAFFB0EE408AF2
:103A7000754890ED1A0A20EE080A80ED1A0A90EDBA
:103A80001B0A20EE080A80ED1B0A90ED1C0A20EEAE
:103A9000080A80ED1C0A90ED1D0A20EE080A80ED50
:103AA0001D0A90ED1C0A20EE000AD0ED1D0A90EDD3
:103AB0001D1A00EE810AF7EE000AB0EE001A41EE80
:103AC000400A10EE901A084604F09AF941EC1B0BDC
:103AD0005D4890ED1B0AD0ED1C0A20EE200AD0EDC7
:103AE0001D0A90ED1A1A00EEC10AF8EE000A20EE47
:103AF000200A10EE101A084604F082F941EC1C0B63
:103B0000B0EE4B1AF0EE6B1AB0EE4C0AF0EE6C0A07
:103B100001F0EAFBB0EE40AAF0EE60AA9FED4B0B7D
:103B200053EC102B51EC1A0B03F0AAFE41EC190BCD
:103B300003F074FC0446444890ED1B0AD0ED1D0AC6
:103B400020EE200AD0ED1C0A90ED1A1A00EE810A30
:103B5000F0EE000A20EE200A10EE101A084604F0DB
:103B60004FF941EC1B0BB0EE4B0AF0EE6B0A01F083
:103B70009FF8B0EE40AAF0EE60AA9FED340B53EC34
:103B8000102B51EC1A0B03F07BFE41EC190B03F0E8
:103B900045FC05462C4890ED1B0A20EE000AD0EDAE
:103BA0001C0A90ED1C1A00EE810AF7EE000AB0EE36
:103BB000001A41EE400A10EE901A084604F020F96F
:103BC00041EC1B0B204890ED1C0AD0ED1D0A20EEA5
:103BD000200AD0ED1B0A90ED1A1A00EEC10AF8EE89
:103BE000000A20EE200A10EE101A084604F008F928
:103BF00041EC1C0BB0EE4B1AF0EE6B1AB0EE4C0A17
:103C0000F0EE6C0A01F070FBB0EE40AAF0EE60AA94
:103C10009FED0E0B53EC102B51EC1A0B03F030FE02
:103C200041EC190B03F0FAFB08EE900A0648C46455
:103C3000B1EE680A80ED140A456590ED130A80ED37
:103C4000160ABDEC0A8B70BD040B0020000000209A
:103C5000DCA54C4038B5002423E06A462849A1F190
:103C60001800FCF76FFD26483C3890ED000AD0EDB7
:103C7000090A30EE200A80ED000A90ED010AD0ED2D
:103C80000A0A30EE200A80ED010A90ED020AD0ED1A
:103C90000B0A30EE200A80ED020A0120FDF7E2FF58
:103CA000641C41F288308442D7D315483C3890EDEB
:103CB000000ADFED140A80EE201A80ED001A90ED64
:103CC000010ADFED100A80EE201A80ED011A90ED56
:103CD000020ADFED0C0A80EE201A80ED021AB7EE20
:103CE000000A80ED1A0A9FED080A80ED1B0A9FED7D
:103CF000060A80ED1C0A9FED040A80ED1D0A38BDFE
:103D0000400B002000409C4500000000FFF7A2FF90
:103D1000FFF70EFC00BF064AA2F10C01A1F118004A
:103D2000FCF710FDFFF738FC0A2002F035FDF2E742
:103D30004C0B002010B50D480D4908600320486069
:103D400000210B488160C1604FF4302101610021E6
:103D50004161017641768176C17601774177FDF741
:103D6000BEFC08B1FDF743FA10BD0000006800403A
:103D70007808002008B500BF002000900E480068B9
:103D800040F480000C4908600846006800F4800098
:103D9000009000BF00BF002205213A20FEF740F945
:103DA0003A20FEF72FF9002205213B20FEF738F9D3
:103DB0003B20FEF727F908BD3038024000B58FB030
:103DC0001C220C4908A8FCF77BFB002108A801F085
:103DD0008CFE094908601C2206491C3101A8FCF729
:103DE0006FFB002101A801F080FE044908600FB0BC
:103DF00000BD0000F87E0008280000202000002000
:103E000000B587B0142102A8FCF794FB00BF002086
:103E100001909248006840F002009049086008460E
:103E2000006800F00200019000BF00BF00BF00204A
:103E300001900846006840F04000086008460068AD
:103E400000F04000019000BF00BF00BF00200190C3
:103E50000846006840F0010008600846006800F06D
:103E60000100019000BF00BF00BF00200190084684
:103E7000006840F4807008600846006800F48070B4
:103E8000019000BF00BF00BF0020019008460068FD
:103E900040F0040008600846006800F0040001904B
:103EA00000BF00BF00BF002001900846006840F03E
:103EB000800008600846006800F08000019000BFA4
:103EC00000BF00BF002001900846006840F02000BD
:103ED00008600846006800F02000019000BF00BFA5
:103EE00000BF002001900846006840F0080008600C
:103EF0000846006800F00800019000BF00BF0022E3
:103F0000C0215748FDF7DEFF012240215548FDF74B
:103F1000D9FF012210215448FDF7D4FF0122114698
:103F20005248FDF7CFFFC0200290012003900220ED
:103F300004900020059002A94948FDF7B5FE4FF412
:103F4000007002901220039001200490032005903D
:103F50000420069002A94648FDF7A6FE4FF48070A3
:103F60000290122003900120049003200590042069
:103F7000069002A93C48FDF797FE402002900120E0
:103F800003900490059002A93648FDF78DFE40206D
:103F9000029002200390012004900220059003204B
:103FA000069002A93348FDF77FFE4FF4E0500290DF
:103FB000022003900120049002200590069002A99F
:103FC0002D48FDF771FE092002902C480390012036
:103FD000049002A92348FDF767FE102002900120FB
:103FE000039004900220059002A91F48FDF75CFE93
:103FF00030200290214803900120049002A91C481F
:10400000FDF752FE012002900390049002200590DB
:1040100002A91648FDF748FE002206210846FDF7D2
:10402000FFFF0620FDF7EEFF002205210920FDF726
:10403000F7FF0920FDF7E6FF002205210A20FDF722
:10404000EFFF0A20FDF7DEFF002205211720FDF714
:10405000E7FF1720FDF7D6FF07B000BD303802405C
:10406000002002400018024000000240000402400C
:104070000008024000140240001C02400000211011
:1040800010B50F480F4908604FF482704860002156
:104090000C488160C1600221016101214161490236
:1040A00081613821C16100210162416281620A217E
:1040B000C162FEF74CFB08B1FDF799F810BD000096
:1040C00000300140A008002000B58DB0002009900C
:1040D0000A900B900C90079008901C216846FCF702
:1040E00029FA2048204908600020486000211E4825
:1040F000816045F20721C160002101618161FEF705
:1041000038FD08B1FDF773F84FF48050099009A904
:104110001548FEF788FD08B1FDF769F81248FEF76B
:1041200050FF08B1FDF763F800200790089007A939
:104130000D48FEF7F7FC08B1FDF759F86020009034
:104140000020019002900490082269460648FEF77C
:10415000CAFE08B1FDF74BF80348FEF791FE0DB01B
:1041600000BD000000080040B809002010B50B4851
:104170000B4908604FF4E130486000210848816035
:10418000C16001610C21416100218161C161FFF7C2
:1041900001F808B1FDF72BF810BD00000010014038
:1041A000F809002010B50B480B4908604FF4E130C6
:1041B0004860002108488160C16001610C214161B3
:1041C00000218161C161FEF7E5FF08B1FDF70FF83D
:1041D00010BD000000140140380A002000BFFEE7B7
:1041E0007047000010B582B004461548DFF854C08F
:1041F0000068B0FBFCF04FF47A7C00FB0CF00190FF
:104200006068B0F5827F0ED10B46009200228021BB
:10421000204600F019F880B1606D40F02000606524
:1042200002B0032010BD019838B10198401E0190E2
:104230002068806810F0800FF5D102B0002010BD1A
:104240002C00002000366E012DE9F0410446069E48
:10425000884617461D462068806838EA000016D058
:104260000020B84210D0B5F1FF3F05D0FDF732FE77
:10427000801BA8420DD265B12068806838EA000032
:1042800033D00020B842EED10020BDE8F0810120FB
:10429000E7E72068416821F0E00141606068B0F51F
:1042A000827F0BD1A068B0F5004F02D0B0F5806FCF
:1042B00004D12068016821F040010160A06AB0F5D6
:1042C000005F09D12068016821F400510160206875
:1042D000016841F400510160012084F85100002080
:1042E00084F850000320BDE8F0810120CAE70000F7
:1042F00010B5502080F31188BFF34F8FBFF36F8F3D
:1043000002F0BAFE18B104494FF080500860002056
:1043100080F3118810BD000004ED00E000B593B0FB
:10432000302107A8FCF706F9142102A8FCF702F9CE
:1043300000BF002001902448006840F080502249CE
:1043400008600846006800F08050019000BF00BF80
:1043500000BF002001901D48006840F480401B49C8
:1043600008600846006800F48040019000BF00BF6C
:10437000012007900004089002200D9041050E9145
:1043800006210F91A821109102211191072112916C
:1043900007A8FDF7C1FF08B1FCF729FF0F20029025
:1043A00002200390002004904FF4A05005904FF499
:1043B00080500690052102A8FDF778FE08B1FCF7B1
:1043C00016FF13B000BD00004038024000700040EE
:1043D0001448006840F470001249086012480068F0
:1043E00040F001001049086000200F4908310860C2
:1043F0000D4800680D4908400B4908600C48091D2C
:104400000860081F006820F48020091F0860002051
:1044100005490C3108604FF000600249803908609E
:104420007047000088ED00E000380240FFFFF6FE14
:104430001030002410B50248FEF768FC10BD0000E3
:10444000780A0020F0B402682C4B2D4C2D4D2E4ED6
:10445000DFF8B8C098420AD0B0F1804F07D0A04230
:1044600005D0A84203D0B04201D0604503D122F06C
:1044700070024F683A43984228D0B0F1804F25D05F
:10448000A04223D0A84221D0B0421FD060451DD009
:10449000A0F18044B4F5A03418D0A0F18044B4F564
:1044A000A23413D0A0F18044B4F5A4340ED0A0F10E
:1044B0008044B4F5C05409D0A0F18044B4F5E05470
:1044C00004D0A0F18044B4F5005403D122F440722A
:1044D000CC6822434C6922F08002224302608A6841
:1044E000C2620A688262984201D0604501D10969BE
:1044F000016301214161F0BC7047000000000140F0
:104500000004004000080040000C0040000401408E
:1045100001F01F0101238B40D0F820C02CEA0303D7
:104520000362036A02FA01F1194301627047D0F88D
:1045300008C02CF47F4C42EA0322114341EA0C01EB
:1045400081607047826822F07002114341F00701D8
:104550008160704770B4026A22F001020262036A4D
:104560004268D0F818C02CF0700C2CF0030C0C68CA
:1045700044EA0C0C23F002038C6823430F4C104DCB
:10458000A04201D0A84205D123F00803CE683343EE
:1045900023F00403A04201D0A84207D122F4807284
:1045A00022F400724C6922438C6922434260C0F8B5
:1045B00018C049684163036270BC70470000014045
:1045C0000004014070B4026A22F010020262036A21
:1045D0004268D0F818C02CF4E04C2CF4407C0C68F5
:1045E0004CEA042C23F020038C6843EA0413114C9A
:1045F000114DA04201D0A84206D123F08003CE681D
:1046000043EA061323F04003A04201D0A84209D197
:1046100022F4806222F400624C6942EA84028C69CE
:1046200042EA84024260C0F818C0496881630362AC
:1046300070BC7047000001400004014070B4026A81
:1046400022F480720262036A4268D0F81CC02CF027
:10465000700C2CF0030C0C6844EA0C0C23F400736F
:104660008C6843EA0423114C114DA04201D0A842AA
:1046700006D123F40063CE6843EA062323F4806363
:10468000A04201D0A84209D122F4805222F4005263
:104690004C6942EA04128C6942EA04124260C0F892
:1046A0001CC04968C163036270BC704700000140D0
:1046B0000004014010B4026A22F480520262D0F871
:1046C00020C04268C36923F4E04323F440730C68BC
:1046D00043EA04232CF4005C8C684CEA043CA0F10F
:1046E0008044B4F5803404D0A0F18044B4F5823421
:1046F00004D122F480424C6942EA84124260C361D0
:1047000049680164C0F820C010BC7047036AD0F843
:1047100020C02CF0010CC0F820C0D0F818C02CF03C
:10472000F00C4CEA021223F00A0319438261016281
:104730007047036A23F010030362D0F818C0036ABD
:104740002CF4704C4CEA023223F0A00343EA01112E
:1047500082610162704710B5806B0021C185C18400
:10476000FEF77BFC10BD0168CA6822F49072CA6033
:1047700001684A6922F001024A61202180F83A105A
:10478000704710B50168CA6822F04002CA60202153
:1047900080F83910FEF7B4FE002010BD10B590F877
:1047A0003A10222901D0022010BD8168B1F5805F46
:1047B00011D0016919B30168496801F07F02816A6B
:1047C0004B1C83620A70C18D491E0904090CC18506
:1047D0001CD0002010BD816A02693AB1026852689B
:1047E000D2B20A80816A491C8162ECE70268526891
:1047F000C2F308020A80816A891C8162E3E70168CA
:104800004A68816A4B1C83620A70DCE70168CA68E7
:1048100022F02002CA600168CA6822F48072CA606D
:1048200001684A6922F001024A61202180F83A10A9
:10483000FEF7BCFD002010BD2DE9F04104462068C4
:104840000169E26821F44051114301612169A068C6
:10485000E26908436169114301432068C26822F498
:10486000037222F414421143C16020684169A269B5
:1048700021F4407111434161E069BC4ABC49BD4D1E
:104880003226B0F5004F5ED02068884202D09042B8
:1048900040F01281FDF7F8FC00EBC00101EB0010C5
:1048A00061688900B0FBF1F7FDF7EEFC00EBC00199
:1048B00001EB001061688900B0FBF1F0A5FB00106E
:1048C00040096FF01801484307EB800006EB001029
:1048D000A5FB0010400900F0F007FDF7D5FC00EB48
:1048E000C00101EB001061688900B0FBF1F0A5FB8D
:1048F0000010400907EB0017FDF7C6FC00EBC001F4
:1049000001EB001061688900B0FBF1F8FDF7BCFC19
:1049100000EBC00101EB001061688900B0FBF1F011
:10492000A5FB001040096FF01801484308EB800018
:1049300006EB0010A5FB00102168C0F343103844BB
:104940008860BDE8F0812068884201D0904259D14A
:10495000FDF79AFC00EBC00101EB00106168490013
:10496000B0FBF1F0A5FB001040090701FDF78CFC3E
:1049700000EBC00101EB001061684900B0FBF1F8E9
:10498000FDF782FC00EBC00101EB001061684900FB
:10499000B0FBF1F0A5FB001040096FF0180148438F
:1049A00008EB800006EBC000A5FB0010400900F0FA
:1049B000F80007EB4007FDF767FC00EBC00101EBD7
:1049C000001061684900B0FBF1F8FDF75DFC00EBF9
:1049D000C00101EB001061684900B0FBF1F0A5FBDC
:1049E000001040096FF01801484308EB800006EB07
:1049F000C000A5FB00102168C0F342103844886055
:104A0000BDE8F081FDF730FC00EBC00101EB0010C8
:104A100061684900B0FBF1F0A5FB001040090701F7
:104A2000FDF722FC00EBC00101EB001061684900BA
:104A3000B0FBF1F8FDF718FC00EBC00101EB001032
:104A400061684900B0FBF1F0A5FB001040096FF070
:104A50001801484308EB800006EBC000A5FB0010DE
:104A6000400900F0F80007EB4007FDF7FDFB00EB05
:104A7000C00101EB001061684900B0FBF1F8FDF7DF
:104A8000F3FB00EBC00101EB001061684900B0FBD3
:104A9000F1F0A5FB001040096FF01801484308EB46
:104AA000800006EBC000A5FB00102168C0F3421097
:104AB00038448860BDE8F081FDF7D6FB00EBC0010B
:104AC00001EB001061688900B0FBF1F7FDF7CCFB4A
:104AD00000EBC00101EB001061688900B0FBF1F050
:104AE000A5FB001040096FF01801484307EB800058
:104AF00006EB0010A5FB0010400900F0F007FDF7E1
:104B0000B3FB00EBC00101EB001061688900B0FB52
:104B1000F1F0A5FB0010400907EB0017FDF7A4FB1F
:104B200000EBC00101EB001061688900B0FBF1F8F7
:104B3000FDF79AFB00EBC00101EB001061688900F2
:104B4000B0FBF1F0A5FB001040096FF018014843DD
:104B500008EB800006EB0010A5FB00102168C0F3F5
:104B6000431038448860BDE8F08100000014014023
:104B7000001001401F85EB5190F83910212901D018
:104B8000022070478168B1F5805F0CD0016A4A1C31
:104B90000262026809785160C18C491E0904090C3F
:104BA000C18410D019E0016A02680988C1F30801C4
:104BB0005160016919B1016A491C0162ECE7016A9F
:104BC000891C0162E8E70168CA6822F08002CA60B5
:104BD0000068C16841F04001C160002070472DE9C4
:104BE000F0410446069D884617461E462068006828
:104BF00038EA000020D00020B84227D1B5F1FF3FAD
:104C00001CD025B1FDF766F9801BA84216D9206893
:104C1000C16821F4D071C1602068416921F00101AF
:104C20004161202084F8390084F83A00002084F89B
:104C300038000320BDE8F0810120DDE7206800682E
:104C400038EA000005D00020B842D7D00020BDE8E7
:104C5000F0810120F8E7000010B50248FEF7FEF9E8
:104C600010BD0000F809002010B50248FEF7F6F963
:104C700010BD0000380A002000BFFEE703B4019811
:104C80004100009850EAC12018BF04204A0D18BF07
:104C900040F0010040F2FF72B2EB515F08BF40F0FC
:104CA0000200012808BF052002B070470000000084
:104CB00070B5C1482DED020B2DED0E8B82B0119D0C
:104CC00025F000449FEDBEDB9FEDBFEB84423EDB51
:104CD000A4F140511098A1F17F6108430FD0BC4866
:104CE000844202DC28D1109830B39DED100B02B045
:104CF000BDEC0E8B02B0BDE8704000F086BC9DEDAF
:104D0000100B53EC1D2B51EC100B02F0B9FD9DED77
:104D1000100B41EC180B53EC1E2B51EC100B02F056
:104D2000AFFD53EC182B02F0ABFB41EC100B02B0C3
:104D3000BDEC0E8B02B070BD0120FBF72AFC02B067
:104D4000BDEC0E8B02B0BDE8704000F075BCA14810
:104D50009FEDA18B844256DA9DED100BB4F1795F83
:104D60000ADA51EC100BFFF789FF042808BF00F0A6
:104D700073FC9DED100BDAE753EC102B51EC100B8C
:104D800002F07EFD41EC190B95480621B0EE490A70
:104D9000F0EE690A784400F0BCFB53EC192B51EC9F
:104DA000100B02F06DFD41EC1A0B8E48B0EE490A73
:104DB000F0EE690A0421784400F0ABFB53EC192BA8
:104DC00051EC100B02F05CFD53EC182B02F058FB79
:104DD00041EC100B51EC1A0B53EC102B02F0F8FBCA
:104DE000CDE900019DED000B53EC102B9DED100B58
:104DF00051EC100B02F044FD9DED101B53EC112BF8
:104E000002F03EFBD2E09DED100B51EC100B00F0D8
:104E1000CBFD53EC182B02F031FE9FED730BCDE967
:104E2000000153EC102B9DED000B51EC100B02F028
:104E300027FD41EC190B6E480621B0EE490AF0EE51
:104E4000690A784400F065FB53EC192B51EC100B08
:104E500002F016FD41EC1B0B6648B0EE490AF0EE7D
:104E6000690A0421784400F054FB53EC192B51ECEF
:104E7000100B02F005FD53EC182B02F001FB41EC86
:104E80001C0B51EC190B01F0EBFA41EC180B5A48D2
:104E90009FED5BABA04222DC53EC1C2B51EC1B0BB7
:104EA00002F096FBCDE900019DED000B51EC180BD3
:104EB00053EC102B02F0E4FC53EC182B02F0E0FA58
:104EC00053EC1A2B02F0DCFC53EC1D2B02F0AEFE6F
:104ED00053EC1E2B02F0D2FD41EC100B5FE08DED88
:104EE000008B002000909DED000B51EC180B53EC53
:104EF000102B02F0C5FA9DED000B41EC1E0B53EC9C
:104F0000102B51EC100B02F0BBFC53EC192B02F0F0
:104F1000B5FD53EC1E2B02F05BFB41EC190B53EC7F
:104F20001C2B51EC1B0B02F053FB41EC1B0B53EC05
:104F30001A2B51EC190B02F0A3FC53EC1D2B02F0C1
:104F40009DFD41EC190B53EC1A2B51EC180B02F0A0
:104F500097FC53EC1B2B02F093FC53EC192B02F043
:104F600065FE9DED000B41EC180B53EC1A2B51EC38
:104F7000100B02F085FC9FED249B53EC192B02F0E3
:104F80007DFD41EC100B51EC180B53EC102B02F093
:104F90004DFE53EC192B02F071FD41EC100B002D6E
:104FA0003FF7C5AE51EC100B02F02CFA41EC100BA0
:104FB000BDE60000000000000000F03F000000001F
:104FC000075C143326A6913C182D4454FB21F93F6D
:104FD0000000F07F0000E03F000000000000F03F14
:104FE000B8310000C6310000000000000000E03FC2
:104FF0000A310000183100003333EF3F0000000099
:105000000000000000000040182D4454FB21E93F3F
:1050100070B59B482DED020B2DED068B079D25F0FD
:105020000044A04218DC9748844202DC0AD106986A
:1050300040B19DED060BBDEC068B02B0BDE87040A3
:1050400000F0E3BA002DCCBF9FED8F0B9FED900BCE
:10505000BDEC068B02B070BD8F48A04215DD8F48B5
:10506000A042D8BF4FF0FF3458DD9DED060B51EC48
:10507000100BFFF703FE042808BF00F0EDFA9DEDCA
:10508000060BBDEC068B02B070BD9DED060B51EC1E
:10509000100B00F089FCCDE9060181489FED828B61
:1050A000A0423CDD8248A0421FDD00249FED82AB80
:1050B0009DED060B53EC1A2B51EC100B02F0E0F9AE
:1050C0009DED060B41EC190B53EC1A2B51EC100B18
:1050D00002F0D6FB53EC182B02F0A8FD53EC192B71
:1050E00002F076FACDE9060149E09DED060B0124B8
:1050F00053EC182B51EC100B02F0C2F99DED060B8E
:1051000041EC190B53EC182B51EC100B02F08EFDF7
:1051100053EC192B02F05CFACDE906012FE0684848
:10512000A0421FDD02249FED689B9DED060B53EC12
:10513000192B51EC100B02F0A3FB53EC182B02F0CF
:105140009FF99DED060B41EC180B53EC192B51EC1C
:10515000100B02F06BFD53EC182B02F039FACDE97D
:1051600006010CE09DED060B032453EC102B9FED84
:10517000580B51EC100B02F02BFACDE906019DED16
:10518000060B53EC102B51EC100B02F079FB41ECA9
:10519000180B53EC182B02F073FB41EC190B4E4823
:1051A0000621B0EE490AF0EE690A784400F0B1F940
:1051B00053EC182B51EC100B02F062FB41EC180B76
:1051C0004648B0EE490AF0EE690A0521784400F03D
:1051D000A0F953EC192B51EC100B02F051FB41ECF0
:1051E000100B51EC180B53EC102B002C0EDA02F0C4
:1051F00047F99DED061B53EC112B02F041FB9DED91
:10520000061B53EC112B02F039FC35E002F038F9A3
:105210009DED061B53EC112B02F032FB41EC100B01
:105220002F48784400EBC40090ED001B51EC100BAC
:1052300053EC112B02F0FAFC9DED061B53EC112BE5
:1052400002F0F4FC41EC100B2648784400EBC4005B
:1052500090ED001B51EC100B53EC112B02F00EFCE7
:1052600041EC100B002DA2BFBDEC068B02B070BD4F
:1052700051EC100B02F0C6F841EC100B01E70000F6
:10528000000010440000F07F182D4454FB21F93F2A
:10529000182D4454FB21F9BF0000DC3F0000203EE4
:1052A0000000F33F00000000000000000000F03F9D
:1052B0000000E63F00000000000000000000004089
:1052C0000080034000000000000000000000F83FE4
:1052D000000000000000F0BF5A2E0000102E000059
:1052E0009A2D0000522D000070B56B4E2DED040B71
:1052F0002DED028B82B0DDF81CC0DDE905235C4298
:105300002CF000411C4341EAD474049D22F000407B
:10531000B44205D86C422C4340EAD474B4420BD951
:105320009DED061B9DED040B02B0BDEC028B04B09D
:10533000BDE8704000F073B9ACF14054A4F17F6453
:105340001C430BD0022404EAAC7444EAD274054333
:105350009FED538B9FED542B07D015E09DED040B73
:1053600051EC100B00F088F942E0002C11BF012C29
:105370009DED040B02B0BDEC028B04BF04B070BD08
:10538000022C38D0032C3BD00B439FED491B9FEDE3
:105390004A0B0AD0B14218D1B04209D121F0804164
:1053A00020F08040079105900FE0002A15DA10E008
:1053B000434B7B44002C08BF93ED000B0DD0012C18
:1053C00010D0022C17D0032C1AD0B0421DD1002AC5
:1053D00003DAB0EE410AF0EE610A02B0BDEC028BD6
:1053E00004B070BD93ED000B51EC100B02F00AF805
:1053F00041EC100BF1E7B0EE480AF0EE680AECE77A
:10540000B0EE420AF0EE620AE7E7401A00153C28C7
:10541000C8BF8DED000B19DCBCF1000FBEBF10F151
:105420003C0F9FED290B8DED000B0FDB9DED060B67
:1054300053EC102B9DED040B51EC100B02F0C8F84F
:1054400000F0B2FA00F018F9CDE90001002C08BF15
:105450009DED000BC1D0012C10D0022C9FED1C0B38
:1054600053EC102B9DED000B51EC100B0DD002F006
:10547000DDFB53EC182B02F0D9FBB9E7019880F063
:10548000004001909DED000BA7E702F0CFFB53EC2D
:10549000182B02F0F3FAABE70000F07F00000000E9
:1054A000182D4454FB210940182D4454FB2109C0F8
:1054B000182D4454FB21F9BF182D4454FB21F93F0A
:1054C000822C00000000000000000000000000002E
:1054D000075C143326A6A13C10B52DED028BB1EE6E
:1054E000C08A18EE100A20F00040C0F1FF40C00F43
:1054F0000AD010EE100A20F00040C0F1FF40C00FAB
:1055000004BF0120FBF745F8B0EE480ABDEC028B62
:1055100010BD70B504462DED028B4D1E00EBC5008D
:10552000B0EE408AF0EE608A90ED000B35F0060098
:1055300017D053EC182B51EC100B02F0A1F941ECF1
:10554000100B6D1E04EBC50090ED001B51EC100B11
:1055500053EC112B01F094FF41EC100B35F00600D9
:10556000E7D1022D36D0042D1CD0062D1CBFBDEC7A
:10557000028B70BD53EC182B51EC100B02F080F92C
:1055800094ED0A1B53EC112B01F07AFF53EC182B0E
:1055900002F076F994ED081B53EC112B01F070FF2B
:1055A00041EC100B53EC182B51EC100B02F068F986
:1055B00094ED061B53EC112B01F062FF53EC182BFA
:1055C00002F05EF994ED040B53EC102B01F058FF40
:1055D00041EC100B53EC182B51EC100B02F050F96E
:1055E00094ED021B53EC112B01F04AFF53EC182BE6
:1055F00002F046F994ED001B53EC112B01F040FF33
:10560000BDEC028B41EC100B70BD10B553EC102BB0
:1056100051EC100B01F034FF41EC100B10BD10B534
:1056200053EC112B51EC100B01F02AFF41EC100B45
:1056300010BD0000000000009FED050B10B553ECFD
:10564000102B51EC100B01F0C3FF41EC100B10BDFF
:1056500000000000000000009FED050B10B553ECAA
:10566000102B51EC100B02F00BF941EC100B10BD9C
:10567000000000000000001010B541EC100BFFF717
:10568000C7FC51EC100B10BD10B5FBF76FF9802073
:10569000FBF746F95520FBF743F95520FBF740F996
:1056A00050490870FBF758F90120FCF7DBFAFBF7CB
:1056B0005DF98020FBF734F95520FBF731F95520CF
:1056C000FBF72EF947490870FBF746F90120FCF774
:1056D000C9FAFBF74BF9B6217E20FBF733F9FBF74C
:1056E0003BF95020FCF7BEFAFBF740F98020FBF7AE
:1056F00017F95520FBF714F95520FBF711F9394933
:105700000870FBF729F90120FCF7ACFAFBF72EF93A
:105710008020FBF705F95520FBF702F95520FBF730
:10572000FFF830490870FBF717F90120FCF79AFAE7
:105730002C4800781E2801D0FF2010BD00202A49E7
:10574000087049E0FBF712F9274A127802EB42028F
:10575000264B1A445178244A127802EB4202985C94
:10576000FBF7F0F8FBF7F8F80120FCF77BFAFBF702
:10577000FDF81D49097801EB41011C4A515C41F0DB
:105780008000FBF7CDF85520FBF7CAF85520FBF752
:10579000C7F814490870FBF7DFF80120FCF762FA3C
:1057A0001148007800EB40001049084440780D494A
:1057B000097888420BD00C48007800EB40000B4978
:1057C000084480780A49097808430949087006485E
:1057D0000078401C04490870034800780628B1DBB3
:1057E0000020AAE7490000204A00002050000020C5
:1057F0004800002010B5FAF73DFF45490020FBF7AF
:1058000082F8FAF72DFF0120FCF72CFAFAF732FFA5
:105810003F490020FBF777F8FAF722FF0120FCF759
:1058200021FAFAF727FFB6211420FBF78BF8FAF7D5
:1058300017FF5020FCF716FAFAF71CFF3449002036
:10584000FBF761F8FAF70CFF0120FCF70BFAFAF707
:1058500011FF2F490020FBF756F8FAF701FF01204E
:10586000FCF700FA2A4800780F2801D0FF2010BD6D
:1058700000202849087045E0FAF7FCFE254A127816
:1058800002EB4202244B1A445178224A127802EB6E
:105890004202985CFBF756F8FAF7E2FE0120FCF7AB
:1058A000E1F9FAF7E7FE1B49097801EB41011A4AD1
:1058B000505C1749FBF727F8FAF7D2FE0120FCF7F6
:1058C000D1F91448007800EB4000134908444078AF
:1058D0000F490978884210D00E480078401E0D49C3
:1058E00008700846007800EB40000C4908448078B6
:1058F0000B49097808430A49087006480078401C9B
:1059000004490870034800780628B5DB0020AEE79C
:10591000490000204A0000206200002050000020C2
:1059200048000020002002490968C8637047000051
:10593000B8090020034A12689062024A1268D163D3
:1059400070470000B809002010B58AB00446002056
:105950000590069001200790002000900190029091
:1059600003900490012008900E2009900D48844275
:1059700001D10E20059069462046FBF74BFC08B18B
:10598000FBF735FC2046FCF7ACF808B1FBF72FFC21
:1059900002212046FBF72CFC08B1FBF728FC002075
:1059A0000AB010BD7808002082B0CDE9000121F0D6
:1059B000004001909DED000B02B051EC100B7047C0
:1059C000F0EE400AF6EE001A60EEA11AB0EE611A8F
:1059D000B0EE600A10EE100A0749A1EB600000EE7D
:1059E000100A21EE002AF7EE081A42EE401A61EE84
:1059F000801AB0EE610A7047865A375FFCF778FA72
:105A0000FEF78CFCFEF7FCF9FEF7B4F9FEF738FB65
:105A1000FEF7C8FBFEF78EF9FEF7A8FBFEF754FB76
:105A2000FAF7B0FF0A48FFF78FFF012209490A4839
:105A3000FDF790FCA820FBF729FB00210748FAF7A7
:105A400023FEFEF7BBF900F04BF800BFFEE70000B5
:105A5000780800201A000020F8090020A008002083
:105A60000021842800D0C11C0846704730B5F0EEF4
:105A7000400A9FED160AB0EE401A03240B6893FB10
:105A8000F4F504FB153300EB8303C3ED000A0B6848
:105A90005B1C0B600B68032B01DA0B6800E003232F
:105AA0001A46002308E000EB830494ED000A30EE70
:105AB000010AB0EE401A5B1C9342F4DB00EE102AA0
:105AC000F8EEC01A81EE210A30BD0000000000008F
:105AD00010B5002800D1012000F05EFE002010BDAE
