:020000040800F2
:10000000585E00204D030008ED520008014B000827
:10001000E95200081D1100080173000800000000EB
:100020000000000000000000000000008D02000839
:100030004F1B000800000000E902000801660008EC
:1000400067030008670300086703000867030008E8
:1000500067030008670300086703000867030008D8
:1000600067030008670300086703000867030008C8
:10007000051A000867030008151A0008670300083E
:1000800067030008251A00086703000867030008D3
:1000900021110008311100086703000867030008F8
:1000A0006703000867030008670300086703000888
:1000B0006703000867030008670300086703000878
:1000C0006703000867030008670300086703000868
:1000D00067030008C1710008670300086703000890
:1000E0006703000867030008670300086703000848
:1000F0006703000867030008670300086703000838
:100100006703000867030008670300086703000827
:100110006703000867030008FD6600080D67000814
:100120006703000867030008351A00086703000822
:1001300067030008670300086703000867030008F7
:100140004111000851110008670300086703000807
:10015000670300086703000867030008F1720008DE
:1001600067030008670300086703000867030008C7
:100170006703000867030008670300080000000029
:100180006703000867030008856A0008996A000889
:100190006703000867030008670300086703000897
:1001A00000000000000000006703000800F002F8F3
:1001B00000F05CF80AA090E8000C82448344AAF1A5
:1001C0000107DA4501D100F051F8AFF2090EBAE8A3
:1001D0000F0013F0010F18BFFB1A43F0010318477B
:1001E000B0DF0000D0DF00000A444FF0000C10F830
:1001F000013B13F0070408BF10F8014B1D1108BFA5
:1002000010F8015B641E05D010F8016B641E01F844
:10021000016BF9D113F0080F1EBF10F8014BAD1C94
:100220000C1B09D16D1E58BF01F801CBFAD505E0B2
:1002300014F8016B01F8016B6D1EF9D59142D6D30C
:10024000704700000023002400250026103A28BF34
:1002500078C1FBD8520728BF30C148BF0B60704738
:100260001FB50DF006FD1FBD10B510BD00F076F9ED
:100270001146FFF7F5FF0AF08FF900F094F903B487
:10028000FFF7F2FF03BC09F095F900002C4B196849
:100290000868B0E8F04F80F30988BFF36F8F4FF024
:1002A000000080F3118870470000000008480068D3
:1002B000006880F308884FF0000080F3148862B66D
:1002C00061B6BFF34F8FBFF36F8F00DF00BF00BF7A
:1002D00008ED00E0DFF80C00016841F470010160F6
:1002E000704700BF88ED00E0EFF30980BFF36F8F28
:1002F000134B1A681EF0100F08BF20ED108A20E97A
:10030000F04F106009B44FF0500080F31188BFF334
:100310004F8FBFF36F8F0CF071F84FF0000080F338
:10032000118809BC19680868B0E8F04F1EF0100F7A
:1003300008BFB0EC108A80F30988BFF36F8F704755
:1003400080010020EFF305807047000009488047D6
:1003500009480047FEE7FEE7FEE7FEE7FEE7FEE7A7
:10036000FEE7FEE7FEE7FEE704480549054A064BBF
:1003700070470000E9660008AD01000858580020E9
:10038000585E0020585A0020585A0020704753EAFF
:10039000020C00F069802DE9F04B4FF00006002BB5
:1003A0001FBFB3FA83F503FA05F424FA05F65E409D
:1003B00012BF1643B2FA82F502FA05F4C5F1200520
:1003C0001EBF22FA05FC44EA0C04203556EA044C10
:1003D0004FEA144418BF641C4FF000084FF00009A6
:1003E000904271EB030C39D3002919BFB1FA81F7A0
:1003F00001FA07F6B0FA80F700FA07F6C7F120070E
:100400001EBF20FA07FC46EA0C062037B6FBF4FCB8
:10041000A7EB0507103F07F01F0BCBF120060CFAE6
:100420000BFB2CFA06F644BFB3460026202FA4BFD0
:100430005E464FF0000B5BEA060C08BF4FF0010B65
:1004400019EB0B09ABFB027C48EB0608C01B06FB53
:1004500002CC0BFB03CC71EB0C01C1E70B4602464F
:1004600041464846BDE8F08B13B54FF000004FF011
:100470000001AFF30080BDE81C40704710B5203A82
:10048000C0F00B80B1E81850203AA0E81850B1E84D
:100490001850A0E81850BFF4F5AF5FEA027C24BF03
:1004A000B1E81850A0E8185044BF18C918C0BDE8FA
:1004B00010405FEA827C24BF51F8043B40F8043BC3
:1004C00008BF7047D20728BF31F8023B48BF11F878
:1004D000012B28BF20F8023B48BF00F8012B7047D2
:1004E0004FF0000200B5134694469646203922BFCD
:1004F000A0E80C50A0E80C50B1F12001BFF4F7AF18
:10050000090728BFA0E80C5048BF0CC05DF804EBF9
:10051000890028BF40F8042B08BF704748BF20F867
:10052000022B11F0804F18BF00F8012B7047704765
:1005300070477047704710B500F008F8006810BDAC
:1005400010B5044600F002F8046010BD0048704782
:10055000F857002000487047F85700207546FFF70D
:10056000F9FFAE4605006946534620F00700854670
:1005700018B020B5FFF7F8FEBDE820404FF00006A8
:100580004FF000074FF000084FF0000B21F007017B
:10059000AC46ACE8C009ACE8C009ACE8C009ACE8BE
:1005A000C0098D46704710B50446AFF30080204661
:1005B000BDE81040FFF763BE10B52DED0E8B04466D
:1005C00094ED000AD4ED020A9FEDB31A00EE810A01
:1005D00010EE101A08460DF0ABFA41EC1E0B9FED21
:1005E000AF1BB0EE4E0AF0EE6E0A07F04DFBB0EE18
:1005F00040CAF0EE60CA94ED010AD4ED020A9FED04
:10060000A61A00EEC10A10EE101A08460DF090FA74
:1006100041EC1E0B9FEDA11BB0EE4E0AF0EE6E0AF0
:1006200007F032FBB0EE40DAF0EE60DA53EC1C2B50
:1006300051EC1D0B0CF08CFC41EC1B0BB0EE4B0A8B
:10064000F0EE6B0A08F074FAB0EE409AF0EE609AA1
:10065000944991F9E8050CF0BEFE41EC1A0B53ECFD
:10066000192B0CF06FFF41EC180B0CF03FFC8D497F
:10067000C1F8FC0594ED000AD4ED020A9FED861A3C
:1006800000EEC10A10EE101A08460DF051FA41ECC6
:100690001E0B9FED821BB0EE4E0AF0EE6E0A07F0C5
:1006A000F3FAB0EE409AF0EE609A94ED010AD4EDC0
:1006B000020A9FED791A00EEC10A10EE101A0846E0
:1006C0000DF036FA41EC1E0B9FED741BB0EE4E0A96
:1006D000F0EE6E0A07F0D8FAB0EE40AAF0EE60AA8B
:1006E00053EC192B51EC1A0B0CF032FC41EC1D0BA6
:1006F000B0EE4D0AF0EE6D0A08F01AFAB0EE408A3C
:10070000F0EE608A674991F9E8050CF064FE41EC6F
:100710001C0B53EC182B0CF015FF41EC1B0B0CF0D1
:10072000E5FB6049C1F8000694ED000AD4ED020A29
:100730009FED591A00EEC10A10EE101A08460DF08E
:10074000F7F941EC1E0B9FED551BB0EE4E0AF0EE93
:100750006E0A07F099FAB0EE40DAF0EE60DA94ED46
:10076000010AD4ED020A9FED4C1A00EE810A10EE48
:10077000101A08460DF0DCF941EC1E0B9FED471BEB
:10078000B0EE4E0AF0EE6E0A07F07EFAB0EE408A46
:10079000F0EE608A53EC1D2B51EC180B0CF0D8FBDB
:1007A00041EC1C0BB0EE4C0AF0EE6C0A08F0C0F9FC
:1007B000B0EE40AAF0EE60AA3A4991F9E8050CF0D3
:1007C0000AFE41EC1B0B53EC1A2B0CF0BBFE41EC68
:1007D000190B0CF08BFB3349C1F8040694ED000AA9
:1007E000D4ED020A9FED2C1A00EE810A10EE101AC9
:1007F00008460DF09DF941EC1E0B9FED281BB0EE55
:100800004E0AF0EE6E0A07F03FFAB0EE40CAF0EE84
:1008100060CA94ED010AD4ED020A9FED1F1A00EEA2
:10082000810A10EE101A08460DF082F941EC1E0BF9
:100830009FED1A1BB0EE4E0AF0EE6E0A07F024FA96
:10084000B0EE40DAF0EE60DA53EC1C2B51EC1D0BED
:100850000CF07EFB41EC1B0BB0EE4B0AF0EE6B0A8A
:1008600008F066F9B0EE408AF0EE608A0D4991F921
:10087000E8050CF0B0FD41EC1A0B53EC182B0CF012
:1008800061FE41EC190B0CF031FB0649C1F808067A
:10089000BDEC0E8B10BD0000F4FD343F00000000E5
:1008A00000000040400A002070B52DED088B044682
:1008B000FC4890F8CC0503287DD194ED000AD4EDD6
:1008C000020A9FEDF91A00EE810A10EE101A08468E
:1008D0000DF02EF941EC1A0B94ED010AD4ED020A49
:1008E0009FEDF11A00EEC10A10EE101A08460DF045
:1008F0001FF941EC1B0BB0EE4A1AF0EE6A1AB0EE8B
:100900004B0AF0EE6B0A06F0AFFFB0EE409AF0EE45
:10091000609A9FEDE60B53EC102B51EC190B0CF089
:10092000D3FB41EC180B9FEDE30B53EC102B0CF0B9
:1009300009FEE24A03C294ED000AD4ED020A9FEDDB
:10094000DA1A00EEC10A10EE101A08460DF0F0F89F
:1009500041EC1A0B94ED010AD4ED020A9FEDD21A74
:1009600000EEC10A10EE101A08460DF0E1F841EC55
:100970001B0BB0EE4A1AF0EE6A1AB0EE4B0AF0EE1C
:100980006B0A06F071FFB0EE409AF0EE609A9FEDB0
:10099000C70B53EC102B51EC190B0CF095FB41ECF1
:1009A000180B9FEDC40B53EC102B0CF0CBFDC34A7E
:1009B000C2E9020100E070E194ED000AD4ED020A00
:1009C0009FEDB91A00EEC10A10EE101A08460DF09C
:1009D000AFF841EC1A0B94ED010AD4ED020A9FED39
:1009E000B21A00EE810A10EE101A08460DF0A0F8B7
:1009F00041EC1B0BB0EE4A1AF0EE6A1AB0EE4B0A4D
:100A0000F0EE6B0A06F030FFB0EE409AF0EE609A1E
:100A10009FEDA60B53EC102B51EC190B0CF054FB73
:100A200041EC180B9FEDA30B53EC102B0CF08AFD3F
:100A3000A24AC2E9040194ED000AD4ED020A9FED36
:100A40009A1A00EE810A10EE101A08460DF070F89E
:100A500041EC1A0B94ED010AD4ED020A9FED921AB3
:100A600000EE810A10EE101A08460DF061F841EC14
:100A70001B0BB0EE4A1AF0EE6A1AB0EE4B0AF0EE1B
:100A80006B0A06F0F1FEB0EE409AF0EE609A9FED30
:100A9000870B53EC102B51EC190B0CF015FB41ECB0
:100AA000180B9FED840B53EC102B0CF04BFD834A7D
:100AB000C2E90601104690ED001BB0EE410AF0EECF
:100AC000610A9FED7F1B53EC112B51EC100B0CF0C6
:100AD00039FD41EC190B0CF009FA00EE100ADFEDBC
:100AE0007A0A30EE200AB0EE408ADFED780A00F094
:100AF000FFF8774880ED7B0A704890ED021BB0EE5E
:100B0000410AF0EE610A9FED6E1B53EC112B51EC84
:100B1000100B0CF017FD41EC190B0CF0E7F900EE8F
:100B2000100ADFED6C0A30EE200AB0EE408ADFEDED
:100B3000670A00F0DDF8684880ED010A5F4890ED33
:100B4000041BB0EE410AF0EE610A9FED5D1B53EC11
:100B5000112B51EC100B0CF0F5FC41EC190B0CF0C7
:100B6000C5F900EE100ADFED5D0A30EE200AB0EEA6
:100B7000408ADFED560A00F0BBF8574880ED020AC4
:100B80004E4890ED061BB0EE410AF0EE610A9FED73
:100B90004C1B53EC112B51EC100B0CF0D3FC41EC23
:100BA000190B0CF0A3F900EE100ADFED4D0A30EE40
:100BB000200AB0EE408ADFED450A00F099F8464879
:100BC00080ED030A424890ED830AB5EEC00AF1EECB
:100BD00010FA1DD190ED840AB5EEC00AF1EE10FABC
:100BE00016D190ED850AB5EEC00AF1EE10FA0FD1DC
:100BF00000200AE03B4901EB800191ED000A3649F3
:100C000001EB800181ED000A401C0428F2DB0EE0BC
:100C100000200AE0304901EB800191ED000A3149E2
:100C200001EB800181ED000A401C0428F2DB002565
:100C300030E0294800EB850090ED000A294800EBE0
:100C40008500D0ED000A30EE600A10EE101A08465A
:100C50000CF06EFF41EC190BB0EE490AF0EE690A98
:100C600007F006F8B0EE408AF0EE608A9FED1E0BAA
:100C700053EC102B51EC180B0CF028FC09D219483E
:100C800000EB850090ED000A134800EB850080ED35
:100C9000000A6D1C042DCCDB00BF00BFBDEC088B2F
:100CA00070BD0000400A0020F4FD343F0000004009
:100CB000FB2109400000000000806640B0100020C9
:100CC0000000000000C0364000407B4500F8FF45B2
:100CD000400E0020004090442C10002000F05A45A7
:100CE00000809D43D010002000000000000036402E
:100CF000B4EEE00AF1EE10FA03DD30EE601AB0EE69
:100D0000410AB5EEC00AF1EE10FA03D230EE201A15
:100D1000B0EE410A7047000010B52DED0A8B044675
:100D200078487949096800EBC10090ED011AF0EEAE
:100D3000410A74487449096800EBC10090ED001A3B
:100D4000B0EE410A204604F03BFFB4F9380600EE4D
:100D5000100AB8EEC00ADFED6D0A20EE200A04F595
:100D6000806080ED910A6A48B0F900000CF033FB16
:100D700041EC1C0B9FED670B53EC102B0CF0E2FBCE
:100D800041EC1A0B04F5806090ED910ADFED630AE7
:100D900030EE200A10EE101A08460CF0C9FE41ECA5
:100DA0001B0B53EC1A2B0CF0D3F841EC190B0CF085
:100DB0009DF808EE100ADFED5A0AB0EE480AFFF778
:100DC00097FF04F5806080ED7B0A5148B0F9000080
:100DD0000CF001FB41EC1C0B9FED4E0B53EC102B68
:100DE0000CF0B0FB41EC1A0B04F5806090ED910A19
:100DF000DFED4C0A30EE200A10EE101A08460CF017
:100E000097FE41EC1B0B53EC1A2B0CF0A1F841ECB4
:100E1000190B0CF06BF808EE100ADFED410AB0EE8A
:100E2000480AFFF765FF04F2EC5080ED010A3848EC
:100E3000B0F900000CF0CFFA41EC1C0B9FED350B24
:100E400053EC102B0CF07EFB41EC1A0B04F5806088
:100E500090ED910ADFED340A30EE200A10EE101A00
:100E600008460CF065FE41EC1B0B53EC1A2B0CF002
:100E70006FF841EC190B0CF039F808EE100ADFEDB1
:100E8000280AB0EE480AFFF733FF04F2EC5080ED79
:100E9000020A1F48B0F900000CF09DFA41EC1C0B4F
:100EA0009FED1C0B53EC102B0CF04CFB41EC1A0B80
:100EB00004F5806090ED910ADFED1C0A30EE200A07
:100EC00010EE101A08460CF033FE41EC1B0B53ECED
:100ED0001A2B0CF03DF841EC190B0CF007F808EE5A
:100EE000100ADFED0F0AB0EE480AFFF701FF04F227
:100EF000EC5080ED030A204605F020FBBDEC0A8B88
:100F000010BD0000A8110020900000200000B64194
:100F10003A0000200000000000C0364000407B4541
:100F200000F8FF450040904400F05A4500809D4382
:100F300010B50446204600F029FB04F5806080EDE2
:100F4000920A002012E094F9E81500EE101AB8EEAB
:100F5000C00A04F58061D1ED920A20EE200A04F265
:100F6000FC5101EB800181ED000A401C0428EADB02
:100F700010BD000070B50446002500BFC2E004F2B9
:100F8000EC5101EB850191ED001AF0EE410A291DAB
:100F900001EB810204F10C0151F82210098801EEE5
:100FA000101AB8EE411AB0EE410A05EB450101EB0B
:100FB000051204F5437101EB820004F0C5F994F8C1
:100FC000640658B19FED510A05EB450000EB051191
:100FD00004F5437000EB810080ED080A05EB450144
:100FE00001EB051204F5437101EB820191ED081A42
:100FF000F0EE410A291D01EB810204F10C0151F8C8
:101000002210B1F9021001EE101AB8EEC11AB0EEBA
:10101000410A05EB450101EB051204F23C4101EBED
:10102000820004F055FB3A4800680A2803DB384880
:101030000068142802DD3648006810B9204609F01F
:10104000ADF904F2FC5101EB8501D1ED000AB0EEDF
:10105000600A05EB450101EB051204F1AC0101EB5F
:101060008200DFED2A0A04F033FB2A480078A0B1A1
:1010700094F9E805404240F29A2110FB01F000EE9D
:10108000100AB8EEC00A05EB450000EB051104F1AB
:10109000AC0000EB810080ED080A1F48007858B1D1
:1010A0009FED1A0A05EB450000EB051104F1AC00B9
:1010B00000EB810080ED080A05EB450101EB05120C
:1010C00004F1AC0101EB820191ED081AF0EE410A46
:1010D00005EB850204F10C0151F82210B1F9021060
:1010E00001EE101AB8EEC11AB0EE410A05EB450147
:1010F00001EB051204F5EE7101EB820004F0E8FA51
:10110000681CC5B2042DFFF63AAF70BD00000000A8
:1011100090000020940000209500002000BFFEE712
:1011200010B5024800F0ACFF10BD0000F80400202C
:1011300010B5024800F0A4FF10BD0000F804002024
:1011400010B5024800F09CFF10BD000020050020F3
:1011500010B5024800F094FF10BD000020050020EB
:10116000F8B507460C4615461E4640F2FF100D49DD
:101170000860082008610020C8608860380A0A49B1
:1011800008704F70200A8870CC70280A08714D7161
:10119000300A8871CE716B460A460249034800F056
:1011A00074FDF8BD1802002020000020F804002083
:1011B000F8B507460C4615461E464FF400700D491B
:1011C0000860082008610020C8608860380A0A4961
:1011D00008704F70200A8870CC70280A08714D7111
:1011E000300A8871CE716B460A460249034800F006
:1011F0004CFDF8BDE801002018000020F804002094
:10120000F8B507460C4615461E4640F2FF100D493C
:10121000086000208860C86008200861380A0A4910
:1012200008704F70200A8870CC70280A08714D71C0
:10123000300A8871CE716B460A460249034800F0B5
:1012400024FDF8BD00020020280000202005002019
:101250008B48007878B18B4890ED000A8A4880ED81
:10126000000A90ED000ABDEEC00A884880ED000A31
:1012700000208349087085480068B4287EDD8348D3
:101280000068C0F5B470C0F1B40000B280490880B5
:101290007C48D0ED000A7D4890ED000AB8EEC00A07
:1012A000F4EEC00AF1EE10FA16DD764890ED000A71
:1012B000DFED780AB4EEE00AF1EE10FA0CD2D0EDD0
:1012C000000A724890ED000AB8EEC00A30EEC00A7B
:1012D0006C4880ED000ACAE06A4890ED000AB5EE5D
:1012E000C00AF1EE10FA20DDD0ED000A6848B0F92E
:1012F000000000EE100AB8EEC00AF4EEC00AF1EEEB
:1013000010FA12D86248B0F9000000EE100AB8EEE8
:10131000C00A5C48D0ED000A30EE600ADFED5E0ADC
:1013200030EEC00A80ED000AA1E05648D0ED000A78
:101330005748B0F9000000EE100AB8EEC00AF4EE0B
:10134000C00AF1EE10FA21DD4E48D0ED000A4F48F8
:1013500090ED000AB8EEC00AF4EEC00AF1EE10FA01
:1013600014D24848D0ED000A4948B0F9000000EE18
:10137000100AB8EEC00A30EEC00A00E007E0DFED68
:10138000470A30EE200A3F4880ED000A6FE03F48F0
:101390000068B4286BDC3D480088B43000B23C499A
:1013A00008803848D0ED000A384890ED000AB8EEC1
:1013B000C00AF4EEC00AF1EE10FA1CDD3148D0ED9F
:1013C000000A0846B0F9000000EE100AB8EEC00AA4
:1013D000F4EEC00AF1EE10FA0DD22A48D0ED000A60
:1013E0002A4890ED000AB8EEC00A30EEC00A25483F
:1013F00080ED000A3BE02348D0ED000A2448B0F914
:10140000000000EE100AB8EEC00AF4EEC00AF1EED9
:1014100010FA12DB1E48B0F9000000EE100AB8EE18
:10142000C00A1848D0ED000A30EE600ADFED1B0A52
:1014300030EEC00A80ED000A19E01248D0ED000A33
:10144000124890ED000AB8EEC00AF4EEC00AF1EEC0
:1014500010FA0CD890ED000AB8EEC00A0948D0ED99
:10146000000A30EE600AB1EE400A80ED000A05483D
:1014700090ED000ABDEEC00A10EE100A00B27047EF
:10148000480000203C000020440000204C000020C8
:101490004A0000200000B44300003443000034C37D
:1014A00010B500EB8003164C34F813301BB200EB80
:1014B000800402EB440423814B780C7843EA042334
:1014C00000EB800422F814304B790C7943EA0423B2
:1014D0001BB200EB800402EB4404A380CB788C7831
:1014E00043EA04231BB200EB800402EB4404638054
:1014F0008B7900EB800402EB4404A37110BD000063
:101500004802002090F8CC15032914D100F5806121
:1015100091ED850A00F5BA6181ED020A00F580615E
:1015200091ED830A81ED740A91ED840A00F5BA61A8
:1015300081ED010A00BF00BF70470000014611485D
:1015400000680B2807D1B1F838060F4A12881044FA
:101550005A3000B270470B480068142803D009487D
:101560000068112807D1B1F83806074A12881044DC
:101570005A3000B2EEE7B1F83806034A1288104438
:1015800000B2E7E7900000203A00002070B52DED92
:101590000A8B0446204600F056F810EE105A2846F2
:1015A0000CF0C6FA41EC1C0B9FED1E1BB0EE4C0A72
:1015B000F0EE6C0A06F068FBB0EE40AAF0EE60AA0E
:1015C000204600F033F810EE105A28460CF0B0FA1E
:1015D00041EC1C0B9FED131BB0EE4C0AF0EE6C0AB5
:1015E00006F052FBB0EE40BAF0EE60BA53EC1A2BA4
:1015F00051EC1B0B0BF0ACFC41EC190BB0EE490AA3
:10160000F0EE690A07F094FAB0EE408AF0EE608AD4
:1016100051EC180B0BF06AFC00EE100ABDEC0A8BC3
:1016200070BD0000000000000000004000F5806177
:10163000D1ED8C0AB0F9001000EE101AB8EEC00A15
:1016400030EEC00A704700F58061D1ED8D0AB0F927
:10165000021000EE101AB8EEC00A30EEC00A704751
:1016600010B50446A068C07A012804D0022828D00A
:10167000032850D13FE0204603F03FFE012084F8CC
:10168000CD058548006809F089FB012084F8EA054A
:1016900094F8E90510B120460AF00CF9002084F80E
:1016A000E905204608F0F8F8A068807A032802D1FE
:1016B00084F8CC0503E0002084F8CC0500BF00BF0F
:1016C00029E0204603F019FE002084F8CD05724879
:1016D000006809F049FB012084F8E90594F8EA055F
:1016E00010B1204607F0A8FF002084F8EA05204644
:1016F00008F06AF80FE0204603F0FFFD00231A46C9
:1017000019461846FFF754FD00231A461946184695
:10171000FFF776FD00BF00BF6048006801282AD1AE
:101720005F48006838BB01205D490860204603F02F
:10173000E4FD012084F8CD055748006809F02EFB30
:10174000012084F8EA0594F8E90510B120460AF072
:10175000B1F8002084F8E905204608F09DF8A0685B
:10176000807A032802D184F8CC0503E0002084F8B5
:10177000CC0500BF00BF4948006802282BD148486B
:101780000068012827D1022045490860204603F05F
:10179000B4FD012084F8CD053F48006809F0FEFA49
:1017A000012084F8EA0594F8E90510B120460AF012
:1017B00081F8002084F8E905204608F06DF8A0685B
:1017C000807A032802D184F8CC0503E0002084F855
:1017D000CC0500BF00BF314800680D282AD1304831
:1017E000006838BB01202E490860204603F085FDC3
:1017F000012084F8CD052848006809F0CFFA0120BF
:1018000084F8EA0594F8E90510B120460AF052F888
:10181000002084F8E905204608F03EF8A068807AA8
:10182000032802D184F8CC0503E0002084F8CC051D
:1018300000BF00BF1948006811282BD11848006864
:10184000012827D1022016490860204603F055FDE3
:10185000012084F8CD051048006809F09FFA0120A6
:1018600084F8EA0594F8E90510B120460AF022F858
:10187000002084F8E905204608F00EF8A068807A78
:10188000032802D184F8CC0503E0002084F8CC05BD
:1018900000BF00BF10BD00005C00002090000020D1
:1018A000B800002010B52DED048B0446A068B0F9F7
:1018B0000400322805DCA068B0F9040010F1320FF2
:1018C00005DAA068B0F90400C4F8180602E00020A8
:1018D000C4F81806A068B0F90600322805DCA06834
:1018E000B0F9060010F1320F05DAA068B0F9060071
:1018F000C4F81C0602E00020C4F81C06A068B0F979
:101900000000322805DCA068B0F9000010F1320FA9
:1019100005DAA068B0F90000C4F8200602E0002053
:10192000C4F82006D4F818060BF055FD41EC190B4D
:101930009FED320B53EC102B0BF004FE41EC180B17
:101940000BF0D4FAC4F80C06D4F81C1648420BF07D
:1019500042FD41EC190B9FED290B53EC102B0BF0C2
:10196000F1FD41EC180B0BF0C1FAC4F81006D4F8E5
:1019700020060BF030FD41EC190B9FED200B53ECD2
:10198000102B0BF0DFFD41EC180B0BF0AFFAC4F895
:10199000140604F58060D0ED830AB0EE600A04F509
:1019A000AF6008F0E9FA04F5AF6090ED010A04F5C4
:1019B000806080ED830AD0ED840AB0EE600A04F501
:1019C000B16008F0D9FA04F5B16090ED010A04F5B0
:1019D000806080ED840AD0ED850AB0EE600A04F5DF
:1019E000B36008F0C9FA04F5B36090ED010A04F59C
:1019F000806080ED850ABDEC048B10BD54E3A59B8F
:101A0000C4002B4010B5024800F0FCFE10BD0000E1
:101A1000D007002010B5024800F0F4FE10BD000011
:101A20003008002010B5024800F0ECFE10BD0000A8
:101A30009008002010B5024800F0E4FE10BD000040
:101A4000F00800200146087810381823B0FBF3F2A4
:101A50000848805CC865032A05D908686FF3090047
:101A6000001D886503E008686FF309008865886DCC
:101A700070470000A4DE0008014600208A6A8B69D6
:101A8000CBB932B1012A0DD0022A03D0032A10D1DA
:101A90000EE000BFCB6A03F08073B3F1807F00D10A
:101AA000012007E0CB6AB3F1C07F00D1012001E043
:101AB00000E000BF34E08B69B3F5005F1AD132B1AA
:101AC000012A07D0022A03D0032A11D10AE000BF5D
:101AD00001200EE0CB6A03F08073B3F1807F00D168
:101AE000012006E0CB6AB3F1C07F00D1012000E005
:101AF00000BF15E032B1012A05D0022A04D0032A22
:101B00000CD103E000BF00BF012008E0CB6A03F066
:101B10008073B3F1807F00D1012000E000BF00BFDF
:101B2000704730B50468246824F4802405682C606C
:101B3000046863608468402C04D10468A26004686F
:101B4000E16003E00468A1600468E26030BD7047B2
:101B500072B600BFFEE7000010B52DED088B0446FD
:101B6000F0EE408A00EE104AB8EEC00A30EE680A85
:101B7000B0EE408A18EE100A0BF0DAFF41EC1A0BB7
:101B8000B0EE4A0AF0EE6A0A06F072F8B0EE409A39
:101B9000F0EE609A9FED150B53EC102B51EC190BE6
:101BA0000BF0CEFD1DD218EE100A0BF0C1FF41EC78
:101BB0001B0BB0EE4B0AF0EE6B0A06F059F8B0EED4
:101BC00040AAF0EE60AA9FED0B0B53EC102B51ECEA
:101BD0001A0B0BF0EBFD41EC190B0BF087F908EE3B
:101BE000100AB0EE480ABDEC088B10BD00000000E2
:101BF0000000B040000000000000C04010B500EB45
:101C00008003164C34F813301BB200EB800402EB57
:101C1000440423814B780C7843EA042300EB8004CE
:101C200022F814304B790C7943EA04231BB200EB01
:101C3000800402EB4404A380CB788C7843EA04232D
:101C40001BB200EB800402EB440463808B7900EB51
:101C5000800402EB4404A37110BD00007A0200204E
:101C600010B5024692F82030012B01D0022B06D18C
:101C700010684069084314686061002010BD506A14
:101C800040F4802050620120F8E7F0B504460D468C
:101C90001E4694F8207020688368A86800B900E0A8
:101CA00000BF012F01D0022F7CD103F0806030B93A
:101CB00003F0006018B903F08050002873D0C3F31C
:101CC0000161022905D9606A40F4000060620120C8
:101CD000F0BD012088403060A86860B9B5F800C048
:101CE000E86840EA4C5C206800F5C07000EB011029
:101CF000C0F800C00FE0D5E901C040EACC00D5F83B
:101D00000CC040EA0C00D4F800C00CF5C07C0CEB11
:101D1000011CCCF80000D5F810C0206800F5C07098
:101D200000EB0110C0F804C0287D01280ED1206806
:101D300000F5C07000EB0110406840F4807C206822
:101D400000F5C07000EB0110C0F804C0D0790006A7
:101D500092F806C040EA0C4092F805C040EA0C2C0C
:101D600010794CEA000C206800F5C07000EB0110FF
:101D7000C0F80CC0D078000692F802C040EA0C40CF
:101D800092F801C040EA0C2092F800C040EA0C0032
:101D9000D4F800C00CF5C07C0CEB011CCCF808009A
:101DA000206801E016E00FE000F5C07000EB0110C4
:101DB000006840F0010C206800F5C07000EB0110D5
:101DC000C0F800C0002083E7606A40F40010606241
:101DD00001207DE7606A40F480206062012077E79F
:101DE000F0B504460A46216894F82050012D01D030
:101DF000022D7ED1424901F50071086840F00100D2
:101E00000860086820F47C5008600868566A40EA58
:101E100006200860107D00F01F06012000FA06F37E
:101E2000C8699843C861A1F50071D069C8B9D1F8F3
:101E30000C029843C1F80C02908880B2968940EA5F
:101E4000064601F51070576940F83760108880B277
:101E5000168940EA064601F51070576900EBC70085
:101E60004660D069012819D1D1F80C021843C1F895
:101E70000C02908880B2168840EA064601F5107080
:101E8000576940F83760908980B2168940EA064663
:101E900001F51070576900EBC7004660906928B9DA
:101EA000D1F804029843C1F8040204E0D1F8040216
:101EB0001843C1F80402106928B9D1F814029843F4
:101EC000C1F8140204E0D1F814021843C1F8140256
:101ED000106A012804D1D1F81C021843C1F81C0271
:101EE000D1F8000220F00100C1F800020020F0BD8E
:101EF000FFE7606A40F4802060620120F7E700009D
:101F000000640040704770B5044694F82050012DDD
:101F100001D0022D7DD151B92068C06800F00300C6
:101F200080B9606A40F400106062012070BD2068D2
:101F3000006900F0030028B9606A40F40010606294
:101F40000120F3E7206800F5D87000EB011000686D
:101F500000F004009060906840B9206800F5D870E7
:101F600000EB01100068400D106007E0206800F5EC
:101F7000D87000EB01100068C0085060206800F5C0
:101F8000D87000EB0110006800F00200D0602068FB
:101F900000F5D87000EB0110406800F00F001061F0
:101FA000206800F5D87000EB0110406800F47F4015
:101FB000000A9061206800F5D87000EB01104068BD
:101FC000000C5061206800F5D87000EB01108068AB
:101FD0001870206800F5D87000EB0110806800F4DC
:101FE0007F40000A5870206800F5D87000EB01109F
:101FF000806800F47F00000C9870206800F5D870AD
:1020000000EB01108068000ED870206800F5D870D1
:1020100000E02FE000EB0110C0681871206800F5A7
:10202000D87000EB0110C06800F47F40000A5871BE
:10203000206800F5D87000EB0110C06800F47F0044
:10204000000C9871206800F5D87000EB0110C06892
:10205000000ED87131B92068C06840F020002668B1
:10206000F06005E02068006940F0200026683061DB
:1020700000205BE7606A40F480206062012055E741
:102080002DE9F05F04460025206846692068D0F8F5
:102090000490206887682068D0F80CA02068D0F8E9
:1020A00010B02068D0F8188006F00100002855D044
:1020B00007F00100C0B101202168886007F002002C
:1020C00018B1204600F02DFB0EE007F0040010B11F
:1020D00045F4006508E007F0080010B145F48055AC
:1020E00002E0204600F01CFB07F48070C8B14FF4FA
:1020F00080702168886007F4007018B1204600F0F5
:1021000012FB0EE007F4806010B145F4005508E0C2
:1021100007F4006010B145F4804502E0204600F06D
:1021200001FB07F48030C8B14FF48030216888602B
:1021300007F4003018B1204600F0F7FA0EE007F47B
:10214000802010B145F4004508E007F4002010B1EC
:1021500045F4803502E0204600F0E6FA06F008007B
:1021600038B10AF0100020B145F400751020216844
:10217000C86006F0040040B10AF0080028B1082049
:102180002168C860204600F01FFA06F0020038B14E
:102190002068C06800F0030010B1204600F016FA75
:1021A00006F0400038B10BF0100020B145F4806516
:1021B00010202168086106F0200040B10BF00800F3
:1021C00028B1082021680861204600F077FA06F05F
:1021D000100038B12068006900F0030010B12046FB
:1021E00000F06DFA06F4003040B109F0100028B19B
:1021F000102021684860204600F062FA06F4803022
:1022000040B109F0080028B1082021684860204644
:1022100000F08CFA06F4004088B309F0040078B3AB
:1022200006F4807020B108F0010008B145F0010506
:1022300006F4007020B108F0020008B145F0020574
:1022400006F4806020B108F0040008B145F00405F0
:1022500006F40060A0B108F0700088B108F07000CA
:10226000402817D006DC10280BD020280CD03028AE
:1022700019D10CE0502810D0602814D110E01DE0D6
:1022800019E045F008050FE045F010050CE045F0B9
:10229000200509E045F0400506E045F0800503E033
:1022A00045F4807500E000BF00BF2068806920F021
:1022B0007000216888610420216848602DB1606A3F
:1022C000284360622046FFF71DFEBDE8F09F70B511
:1022D00004460CB9012070BD94F8200010B92046C6
:1022E00000F0B0F82068006840F001002168086044
:1022F00000F07EFD05460DE000F07AFD401B0A2847
:1023000008D9606A40F400306062052084F820003B
:102310000120E0E72068406800F001000028EBD0D1
:102320002068006820F002002168086000F060FD6D
:1023300005460DE000F05CFD401B0A2808D9606AE4
:1023400040F400306062052084F820000120C2E7DC
:102350002068406800F002000028EBD1207E0128B0
:1023600006D12068006840F080002168086005E020
:102370002068006820F0800021680860607E0128E5
:1023800006D12068006840F040002168086005E040
:102390002068006820F0400021680860A07E0128C5
:1023A00006D12068006840F020002168086005E040
:1023B0002068006820F0200021680860E07E012885
:1023C00006D12068006820F010002168086005E050
:1023D0002068006840F0100021680860207F012814
:1023E00006D12068006840F008002168086005E018
:1023F0002068006820F0080021680860607F0128DC
:1024000006D12068006840F004002168086005E0FB
:102410002068006820F0040021680860D4E9020107
:10242000084321690843616908436168491E0843FC
:102430002168C86100206062012084F8200000202B
:1024400049E7000010B586B00446142101A8FEF744
:1024500047F857492068884249D156480068401CCF
:10246000544908600846006801280FD100BF0020C9
:1024700000905148006840F000704F4908600846DD
:10248000006800F00070009000BF00BF00BF002097
:10249000009049481038006840F00800464910395B
:1024A00008600846006800F00800009000BF00BF08
:1024B000032001900220029000200390032004904A
:1024C0000920059001A93D4800F07CFB0022052170
:1024D000142000F051FD142000F03EFD00220521E3
:1024E000152000F049FD152000F036FD5DE034496F
:1024F0002068884259D100BF002000902E48006813
:1025000040F080602C4908600846006800F0806058
:10251000009000BF00BF27480068401C25490860A4
:102520000846006801280FD100BF00200090224813
:10253000006840F00070204908600846006800F01C
:102540000070009000BF00BF00BF002000901A483C
:102550001038006840F0020017491039086008463A
:10256000006800F00200009000BF00BF4FF4405030
:102570000190022002900020039003200490092083
:10258000059001A90F4800F01DFB00220521402005
:1025900000F0F2FC402000F0DFFC00220521412089
:1025A00000F0EAFC412000F0D7FC06B010BD0000AE
:1025B000006400407800002040380240000C0240D7
:1025C00000680040000402407047000010B58EB063
:1025D00004463149206888422DD1304B07AA00219A
:1025E0002F48FFF790FC0798A0F20120052821D280
:1025F000DFE800F003090F151B002A4A27490020D5
:10260000FEF74EFF16E0274A24490120FEF748FF57
:1026100010E0244A21490220FEF742FF0AE0214A45
:102620001E490320FEF73CFF04E01F491B4802F04F
:1026300069FA00BF2DE01D492068884229D11C4B52
:102640006A4600211B48FFF75EFC0098A0F20520B7
:1026500030B101280AD002280ED0032818D111E089
:10266000154A13490020FFF7C9FA11E0124A104930
:102670000120FFF7C3FA0BE00F4A0D490220FFF7D4
:10268000BDFA05E00C4A0A490320FFF7B7FA00BF7C
:1026900000BF0EB010BD0000006400400800002024
:1026A000F80400204802002070020020006800406A
:1026B00010000020200500207A020020704770479B
:1026C000704770B5044694F82000012822D10220FA
:1026D00084F820002068006820F00100216808606C
:1026E00000F086FB05460DE000F082FB401B0A2847
:1026F00008D9606A40F400306062052084F8200048
:10270000012070BD2068406800F001000028EBD176
:102710006062F6E7606A40F4002060620120F0E742
:10272000704770477047704770477047704770B583
:102730000446A56D00F05CFB064694F835000228BF
:1027400008D08020606500BF002084F8340000BFFE
:10275000012070BD2068006820F016002168086024
:102760002068406920F0800021684861206C08B929
:10277000A06C28B12068006820F00800216808607B
:102780002068006820F001002168086010E000F077
:102790002FFB801B05280BD920206065032084F8BF
:1027A000350000BF002084F8340000BF0320D0E7CC
:1027B0002068006800F001000028E8D194F85C105F
:1027C0003F208840A860012084F8350000BF002029
:1027D00084F8340000BF00BFBBE7014691F8350024
:1027E000022803D08020486501207047052081F829
:1027F00035000868006820F001000A6810600020B9
:10280000F3E70000F8B50446002000908C4800680B
:102810004FF41651B0FBF1F7A56D2E6894F85C10DB
:1028200008208840304098B12068006800F004001B
:1028300070B12068006820F004002168086094F8F6
:102840005C1008208840A860606D40F00100606561
:1028500094F85C1001208840304068B120684069DD
:1028600000F0800040B194F85C1001208840A8601E
:10287000606D40F00200606594F85C1004208840B0
:10288000304068B12068006800F0020040B194F860
:102890005C1004208840A860606D40F00400606512
:1028A00094F85C1010208840304078B320680068AD
:1028B00000F0080050B394F85C1010208840A86025
:1028C0002068006800F4802080B12068006800F46F
:1028D000002028B9206CC8B12046216C884715E03B
:1028E000A06C98B12046A16C88470FE02068006872
:1028F00000F4807028B92068006820F00800216882
:102900000860206C10B12046216C884794F85C1058
:10291000202088403040002865D02068006800F002
:10292000100000285FD094F85C1020208840A86038
:1029300094F83500052828D12068006820F016009A
:10294000216808602068406920F0800021684861A3
:10295000206C08B9A06C28B12068006820F008003D
:102960002168086094F85C103F208840A86001202E
:1029700084F8350000BF002084F8340000BF206DCB
:1029800010B12046216D8847F8BD2068006800F42A
:10299000802080B12068006800F4002028B9606CB5
:1029A00010B12046616C88471DE0E06BD8B120462D
:1029B000E16B884717E02068006800F4807068B910
:1029C0002068006820F0100021680860012084F869
:1029D000350000BF002084F8340000BFE06B10B168
:1029E0002046E16B8847606D38B3606D00F00100F0
:1029F000F0B1052084F835002068006820F001005F
:102A00002168086000BF0098401C0090B84200D9BF
:102A100005E02068006800F001000028F3D100BF45
:102A2000012084F8350000BF002084F8340000BF86
:102A3000E06C10B12046E16C884700BFA4E70000BD
:102A40007C0000202DE9F0410446002500F0D0F97B
:102A5000074614B90120BDE8F081606A00B100BFEB
:102A6000022084F8350000BF002084F8340000BF45
:102A70002068006820F00100216808600AE000F08A
:102A8000B7F9C01B052805D920206065032084F80C
:102A90003500E0E72068006800F001000028EED172
:102AA0002068056821480540D4E901010843E16830
:102AB00008432169084361690843A1690843E16942
:102AC0000843216A08430543606A042803D1D4E916
:102AD0000B0108430543206805602068456925F01F
:102AE0000705606A0543606A04280DD1A06A0543A2
:102AF000E06A48B12046FEF7BFFF28B1402060657C
:102B0000012084F83500A6E7206845612046FEF7DD
:102B100099FF064694F85C103F208840B060002082
:102B20006065012084F83500002094E73F8010F0B4
:102B30002DE9F04704460D4616461F464FF00008A3
:102B4000D4F8589000BF94F83400012802D1022034
:102B5000BDE8F087012084F8340000BF94F8350008
:102B6000012825D1022084F83500002060653B460D
:102B7000324629462046FEF7D4FF94F85C103F20E9
:102B80008840C9F808002068006840F016002168F5
:102B90000860206C28B12068006840F008002168B7
:102BA00008602068006840F001002168086006E0C5
:102BB00000BF002084F8340000BF4FF002084046F8
:102BC000C6E70000F8B502460B46002500240020A9
:102BD0000021E0E0012606FA01F51E6806EA050478
:102BE000AC4274D11E7906F00306012E04D01E7982
:102BF00006F00306022E13D190684F000326BE4054
:102C0000B0434F00DE68BE403043906050680126FC
:102C10008E40B0431E79C6F300168E40304350609C
:102C20001E7906F00306032E09D0D0684F00032654
:102C3000BE40B0434F009E68BE403043D0601E7916
:102C400006F00306022E13D1CF0802F1200656F833
:102C500027004E07F70E0F26BE40B0434F07FF0E6A
:102C60001E69BE403043CF0802F1200646F8270017
:102C700010684F000326BE40B0431E7906F00306DD
:102C80004F00BE40304310605E6806F44036002EB0
:102C90001DD000BF00260096414E366846F480469F
:102CA0003F4F3E603E46366806F48046009600BFC1
:102CB00000BF3C4E8F0856F827008E07370F0F26AF
:102CC000BE40B043384EB24202D100262EE061E051
:102CD000364EB24201D1012628E0354EB24201D132
:102CE000022623E0334EB24201D103261EE0324ECB
:102CF000B24201D1042619E0304EB24201D105267C
:102D000014E02F4EB24201D106260FE02D4EB24202
:102D100001D107260AE02C4EB24201D1082605E077
:102D20002A4EB24201D1092600E00A268F073F0F42
:102D3000BE4030431B4E8F0846F82700244E3068B3
:102D4000A0435E6806F4801606B12043204E306032
:102D5000361D3068A0435E6806F4001606B12043B5
:102D60001B4E361D30601A4E361F3068A0435E6819
:102D700006F4003606B12043154E361F3060361F6C
:102D80003068A0435E6806F4803606B12043104EDA
:102D9000083E3060491C1029FFF41CAFF8BD00004C
:102DA000443802400838014000000240000402405C
:102DB00000080240000C02400010024000140240D3
:102DC00000180240001C0240002002400024024083
:102DD000083C0140024613690B400BB1012000E0A2
:102DE000002070470AB1816101E00B0483617047E4
:102DF0000148006870470000740100200348006823
:102E000003490978084401490860704774010020AB
:102E10007C01002010B50D48006840F400700B499B
:102E200008600846006840F4806008600846006852
:102E300040F480700860032000F0DCF80F2000F000
:102E400007F800F05FF8002010BD0000003C0240D1
:102E50002DE9F04188B004460027B84600BF0020A5
:102E600001902348006840F010002149086008469E
:102E7000006800F01000019000BF00BF02A903A885
:102E800000F0B0F9069F1FB900F0D4F9054602E042
:102E900000F0D0F945001748B5FBF0F0A0F10108AB
:102EA00015481649086040F2E7311448C160C0F87F
:102EB0000480002101618160816100F0BFFD064650
:102EC00096B90E4800F056FE06466EB9362000F060
:102ED00043F8102C07D200222146362000F04CF88F
:102EE0000748046000E00126304608B0BDE8F081E4
:102EF0004038024040420F000010004050090020BE
:102F00007801002008B500BF00200090114800683B
:102F100040F480400F4908600846006800F4804093
:102F2000009000BF00BF00BF00200090081F006895
:102F300040F08050091F08600846006800F080508B
:102F4000009000BF00BF00220F21901E00F014F877
:102F500008BD00004438024001460846002809DB4D
:102F600000F01F0301229A4043099B0003F1E02374
:102F7000C3F8002100BF70472DE9F05F80460D4681
:102F80001646002704F0E6FA074639462A46334635
:102F900001F00700C0F1070ABAF1040F02D94FF09F
:102FA000040A01E0C0F1070AD14600F1040ABAF1AF
:102FB000070F02D24FF0000A01E0A0F1030AD44645
:102FC0004FF0010A0AFA09FAAAF1010A0AEA020A0A
:102FD0000AFA0CFA4FF0010B0BFA0CFBABF1010BE8
:102FE0000BEA030B4AEA0B042146404604F0BAFA06
:102FF000BDE8F09F00BF00F00702064B19684FF6CE
:10300000FF031940044B0B4343EA0221014B1960B3
:1030100000BF70470CED00E00000FA0500BF00BFE4
:1030200000BF00BF00BFBFF34F8F00BF00BF00BF96
:103030000948006800F4E06008490843001D06499B
:10304000086000BF00BF00BFBFF34F8F00BF00BFCD
:1030500000BF00BF00BFFDE70CED00E00000FA0577
:1030600070B504460D460CB9012070BD5848006883
:1030700000F00F00A84209D255490D7008460068BB
:1030800000F00F00A84201D00120EEE7207800F008
:10309000020002281DD1207800F00400042805D188
:1030A0004C48006840F4E0504A490860207800F03D
:1030B0000800082805D14748006840F460404549A9
:1030C00008604448006820F0F000A16808434149C6
:1030D0000860207800F00100A8B36068012807D1DB
:1030E0003C4808380068C0F34040B8B90120BCE74C
:1030F0006068022802D06068032807D13548083884
:103100000068C0F3406048B90120AEE73148083894
:103110000068C0F3400008B90120A6E72D48006808
:1031200020F00300616808432A490860FFF760FE49
:10313000064609E0FFF75CFE801B41F288318842B9
:1031400002D9032091E707E02248006800F00C0054
:103150006168B0EB810FEDD11D48006800F00F00F1
:10316000A84209D91A490D700846006800F00F00FE
:10317000A84201D0012078E7207800F0040004285C
:1031800007D11448006820F4E050E1680843114971
:103190000860207800F00800082808D10D48006871
:1031A00020F46040216940EAC1000A49086000F04B
:1031B00061F808490968C1F30311074A515CC84026
:1031C0000649086006480068FFF742FE00204CE709
:1031D000003C02400838024074DE00087C000020F9
:1031E000780100200F2202600D4A126802F00302EB
:1031F00042600B4A126802F0F0028260084A1268CC
:1032000002F4E052C260064A126802F46042D20838
:103210000261044A126802F00F020A60704700005F
:1032200008380240003C0240014800687047000036
:103230007C00002000B5FFF7F7FF04490968C1F3DF
:103240008221034A515CC84000BD0000083802409A
:1032500084DE000800B5FFF7E7FF04490968C1F301
:103260004231034A515CC84000BD000008380240AA
:1032700084DE00082DE9F047002400250026A14641
:103280002548006800F00C0020B1042805D008286B
:103290003AD105E0DFF8849039E0DFF8849036E039
:1032A0001D48001F006800F03F041B48001F006815
:1032B00000F4800078B11A481749091F0968C1F362
:1032C0008811A0FB01700146224600233846FDF715
:1032D0005EF805460EE011480F49091F0968C1F361
:1032E0008811A0FB01700146224600233846FDF7F5
:1032F0004EF805460848001F0068C0F30140401C16
:103300004600B5FBF6F902E0DFF8109000BF00BF01
:103310004846BDE8F0870000083802400024F40069
:10332000001BB700F8B504460CB90120F8BD2078A1
:1033300000F00100002874D0F948006800F00C008B
:1033400004280DD0F648006800F00C00082813D1BE
:10335000F348001F006800F48000B0F5800F0BD127
:10336000EF4808380068C0F34040002859D0606832
:10337000002856D10120D9E700BF6068B0F5803F32
:1033800008D1E7480838006840F48030E44908393B
:1033900008601EE06068B0F5A02F0DD1E048083845
:1033A000006840F48020DE4908390860084600685B
:1033B00040F4803008600CE0D9480838006820F4F8
:1033C0008030D749083908600846006820F480201A
:1033D000086000BF606890B1FFF70AFD054606E08F
:1033E000FFF706FD401B642801D903209EE7CC4867
:1033F00008380068C0F340400028F1D011E0FFF722
:10340000F7FC054606E0FFF7F3FC401B642801D9F2
:1034100003208BE7C24808380068C0F3404000280A
:10342000F1D1207800F0020002285FD1BC4800688A
:1034300000F00C0058B1BA48006800F00C000828F1
:103440001CD1B748001F006800F48000B0B9B44830
:1034500008380068C0F3400020B1E068012801D0BE
:10346000012063E7AE480838006820F0F8002169C1
:1034700040EAC100AA490839086037E0E06800B3B3
:103480000120A8490860FFF7B3FC054606E0FFF7F6
:10349000AFFC401B022801D9032047E7A0480838A9
:1034A0000068C0F340000028F1D09D48083800684B
:1034B00020F0F800216940EAC10099490839086004
:1034C00014E0002097490860FFF792FC054606E0EB
:1034D000FFF78EFC401B022801D9032026E7904805
:1034E00008380068C0F340000028F1D1207800F0CF
:1034F000080008282CD16069A8B101208A49086019
:10350000FFF776FC054606E0FFF772FC401B022839
:1035100001D903200AE782486C300068C0F34000FC
:103520000028F1D014E000207F490860FFF760FC1C
:10353000054606E0FFF75CFC401B022801D903208A
:10354000F4E677486C300068C0F340000028F1D101
:10355000207800F00400042870D10027704838302B
:10356000006800F0805090B900BF002000906C48C7
:103570003830006840F080506949383108600846AA
:10358000006800F08050009000BF00BF012767482E
:10359000006800F48070B0B96448006840F480703E
:1035A00062490860FFF724FC054606E0FFF720FCAF
:1035B000401B022801D90320B8E65C48006800F4EB
:1035C00080700028F2D000BFA068012808D15448BC
:1035D0006830006840F001005149683108601DE022
:1035E000A06805280DD14E486830006840F00400FE
:1035F0004B49683108600846006840F001000860E7
:103600000CE047486830006820F001004449683108
:1036100008600846006820F00400086000BFA06849
:10362000A8B1FFF7E5FB054609E0FFF7E1FB401B0A
:1036300041F28831884202D9032077E626E03848F3
:1036400068300068C0F340000028EED013E0FFF7B8
:10365000CFFB054608E0FFF7CBFB401B41F288316A
:10366000884201D9032061E62D4868300068C0F324
:1036700040000028EFD1012F07D1294838300068D9
:1036800020F0805026493831086000BFA06900282A
:1036900045D02348006800F00C0008285DD0A069E0
:1036A000022845D100201F490866FFF7A1FB054607
:1036B00006E0FFF79DFB401B022801D9032035E6F9
:1036C000174808380068C0F340600028F1D1D4E9F9
:1036D00007010843616A40EA81110122A06AC2EB36
:1036E000500041EA00412C20005D41EA00600C4995
:1036F000091F086001200B490866FFF779FB0546A2
:1037000006E0FFF775FB401B022801D903200DE6F8
:10371000034808380068C0F340600028F1D049E051
:103720000838024000004742800E474200700040C7
:10373000002021490866FFF75BFB054606E0FFF71E
:1037400057FB401B022801D90320EFE51B48006806
:10375000C0F340600028F2D12CE0A069012800D11C
:10376000E4E51648001D0668A069012820D006F48B
:103770008001E06981421BD106F03F01206A81424D
:1037800016D147F6C0703040616AB0EB811F0FD18F
:1037900006F440310122A06AC2EB5000B1EB004FA9
:1037A00006D106F070612C20005DB1EB006F01D0F6
:1037B0000120BBE50020B9E5000047420038024087
:1037C00010B504460CB9012010BD606A38B96068B4
:1037D000B0F5827F00D105E00021E16102E0002127
:1037E000216161610021A16294F8510028B9002093
:1037F00084F85000204600F047F8022084F8510079
:103800002068006820F0400021680860A08800F46B
:103810008270218901F404410843A18901F4006107
:103820000843217C01F002010843217D01F00101E0
:103830000843218B01F400710843217F01F0380116
:1038400008432021095D01F080010843218D01F426
:1038500000510843216808600421A06901EA104072
:1038600094F8241001F01001084321684860206892
:10387000C06920F400602168C861002060650120F3
:1038800084F8510000209FE710B586B0044614214B
:1038900001A8FCF725FE1B492068884230D100BFF3
:1038A000002000901848006840F480101649086015
:1038B0000846006800F48010009000BF00BF00BF01
:1038C0000020009010481438006840F020000E4995
:1038D000143908600846006800F02000009000BF1E
:1038E00000BF4FF46070019002200290002003900E
:1038F000032004900520059001A90448FFF762F910
:1039000006B010BD0050014044380240001402408F
:103910007047704710B50346002200BF93F83C0083
:10392000012801D1022010BD012083F83C0000BF16
:1039300022F0FF00CC6840EA040222F440708C6858
:1039400040EA040222F480604C6840EA040222F457
:1039500000600C6840EA040222F480500C6940EADE
:10396000040222F400504C6940EA040222F4804030
:10397000CC6940EA04021868426400BF002083F862
:103980003C0000BF00BFCEE730B502460B4600BF8B
:1039900092F83C00012801D1022030BD012082F8BC
:1039A0003C0000BF022082F83D00106844681068A7
:1039B000816824F070041868044310684460184D4E
:1039C0001068A8421BD01068B0F1804F17D0154D79
:1039D0001068A84213D0144D1068A8420FD0134DA0
:1039E0001068A8420BD0124D1068A84207D0114DA4
:1039F0001068A84203D0104D1068A84205D121F0EC
:103A000080015868014310688160012082F83D0000
:103A100000BF002082F83C0000BF00BFBDE70000EF
:103A2000000001400004004000080040000C00407D
:103A300000040140004001400018004010B5044659
:103A40000CB9012010BD94F83D0028B9002084F87D
:103A50003C00204600F026F8022084F83D00211D9D
:103A6000206802F05BFE012084F8460000BF84F865
:103A70003E0001213F2001554020015541200155C4
:103A800000BF00BF012084F84200432001554420BC
:103A900001554520015500BF012084F83D0000205C
:103AA000D0E7000038B504462E49206888420FD17F
:103AB00000BF002000902C48006840F001002A4917
:103AC00008600846006800F00100009000BF48E070
:103AD0002068B0F1804F11D100BF00200090224833
:103AE000001F006840F001001F49091F08600846D8
:103AF000006800F00100009000BF32E01B49206820
:103B000088421AD100BF002000901748001F0068AB
:103B100040F020001449091F08600846006800F0C2
:103B20002000009000BF00BF002205213720FFF7D2
:103B300023FA3720FFF710FA13E00D492068884276
:103B40000FD100BF002000900748006840F002003D
:103B5000054908600846006800F00200009000BFB8
:103B600000BF38BD0000014044380240001400404E
:103B700000040140014691F83D00012801D00120D8
:103B80007047022081F83D000868C06840F00100DD
:103B90000B68D8601A4B086898421BD00868B0F1CF
:103BA000804F17D0174B0868984213D0164B0868FF
:103BB00098420FD0154B086898420BD0144B0868F8
:103BC000984207D0134B0868984203D0124B0868FC
:103BD00098420CD10868806800F00702062A0CD0D1
:103BE0000868006840F001000B68186005E008688C
:103BF000006840F001000B6818600020C0E700007A
:103C0000000001400004004000080040000C00409B
:103C10000004014000400140001800402DE9F0413F
:103C200004460D46002700BF94F83C00012802D14D
:103C30000220BDE8F081012084F83C0000BF022092
:103C400084F83D002068866826F0770626F47F46D3
:103C5000206886602868502833D00CDC202850D09B
:103C600004DC00284BD0102851D149E0302849D03D
:103C700040284CD139E060282DD0702807D0B0F50D
:103C8000805F03D0B0F5005F41D10DE041E0D5E9A0
:103C900002136A68206802F0BEFD2068866846F05C
:103CA00077062068866034E0D5E902136A682068E8
:103CB00002F0B1FD2068806840F48040216888608F
:103CC00027E0EA686968206802F096FE50212068C3
:103CD00002F0ACFD1DE0EA686968206802F09FFE12
:103CE0006021206802F0A2FD13E0EA68696820689C
:103CF00002F082FE4021206802F098FD09E000BF3A
:103D000000BF00BF2968206802F090FD01E0012794
:103D100000BF00BF012084F83D0000BF002084F8F0
:103D20003C0000BF384684E7704710B50446206861
:103D30000069C0F34000D8B12068C068C0F34000FB
:103D4000B0B16FF00200216808610120207720687F
:103D5000806900F0030018B12046FFF7E5FF05E099
:103D6000204600F027F9204600F0DBF900202077FC
:103D700020680069C0F38000D8B12068C068C0F333
:103D80008000B0B16FF00400216808610220207744
:103D90002068806900F4407018B12046FFF7C4FF26
:103DA00005E0204600F006F9204600F0BAF90020B0
:103DB000207720680069C0F3C000D8B12068C068CF
:103DC000C0F3C000B0B16FF00800216808610420A2
:103DD00020772068C06900F0030018B12046FFF783
:103DE000A3FF05E0204600F0E5F8204600F099F931
:103DF0000020207720680069C0F30010D8B1206847
:103E0000C068C0F30010B0B16FF010002168086105
:103E1000082020772068C06900F4407018B120465F
:103E2000FFF782FF05E0204600F0C4F8204600F0CE
:103E300078F9002020772068006900F0010058B16F
:103E40002068C06800F0010030B16FF00100216807
:103E50000861204600F0ECF920680069C0F3C0104A
:103E600058B12068C068C0F3C01030B16FF0800056
:103E7000216808612046FFF74BFD20680069C0F308
:103E8000801058B12068C068C0F3801030B16FF066
:103E9000400021680861204600F0D6F920680069DA
:103EA000C0F3401058B12068C068C0F3401030B172
:103EB0006FF02000216808612046FFF72AFD10BD41
:103EC00010B586B00446142101A8FCF709FB33495C
:103ED000206888421DD100BF002000903048006853
:103EE00040F010002E4908600846006800F01000FD
:103EF000009000BF00BFC814019002200290002073
:103F0000039004900120059001A92648FEF75AFE6F
:103F100042E02068B0F1804F1DD100BF002000902A
:103F20001F48006840F001001D490860084600680D
:103F300000F00100009000BF00BF0F2001900220A0
:103F400002900020039004900120059001A91648DA
:103F5000FEF738FE20E01549206888421CD100BFDA
:103F6000002000900E48006840F480700C49086002
:103F70000846006800F48070009000BF00BFE42095
:103F800001900220029000200390049003200590ED
:103F900001A90748FEF716FE06B010BD000001405B
:103FA000303802400010024000000240000401408E
:103FB0000020024070472DE9F04104460D461646A8
:103FC000002700BF94F83C00012802D10220BDE880
:103FD000F081012084F83C0000BF36B1042E1BD0D4
:103FE000082E31D00C2E5ED145E02946206802F023
:103FF00027FC2068806940F00800216888612068FB
:10400000806920F00400216888612068806929693E
:1040100008432168886148E02946206802F048FC8E
:104020002068806940F400602168886120688069A8
:1040300020F480602168886120688069296940EAED
:1040400001202168886130E02946206802F06EFC7A
:104050002068C06940F008002168C8612068C06914
:1040600020F004002168C8612068C06929690843FC
:104070002168C86119E02946206802F093FC206895
:10408000C06940F400602168C8612068C06920F4FC
:1040900080602168C8612068C069296940EA012000
:1040A0002168C86101E0012700BF00BF00BF0020F8
:1040B00084F83C0000BF384689E710B504460CB9C7
:1040C000012010BD94F83D0028B9002084F83C0080
:1040D000204600F025F8022084F83D00211D2068CC
:1040E00002F01CFB012084F8460000BF84F83E006B
:1040F00001213F200155402001554120015500BFBD
:1041000000BF012084F8420043200155442001559E
:104110004520015500BF012084F83D000020D0E774
:104120007047704770B504460D4615B994F83E00C7
:104130000BE0042D02D13F20005D06E0082D02D1E6
:104140004020005D01E04120005D012801D00120F8
:1041500070BD1DB9022084F83E000EE0042D03D18D
:1041600002213F20015508E0082D03D10221402003
:10417000015502E002214120015501222946206813
:1041800002F038FB23492068884203D02249206886
:10419000884201D1012000E0002028B12068406C55
:1041A00040F40040216848641A49206888421BD0C6
:1041B0002068B0F1804F17D018492068884213D08A
:1041C0001749206888420FD01649206888420BD0D2
:1041D00011492068884207D013492068884203D0DB
:1041E0001249206888420CD12068806800F00706D8
:1041F000062E0CD02068006840F00100216808609D
:1042000005E02068006840F0010021680860002097
:104210009EE700000000014000040140000400404F
:1042200000080040000C0040004001400018004021
:1042300010B5044603492068884201D1FEF7DEFD2F
:1042400010BD00000010004070477047704700002C
:104250002DE9F84F0446206805682068C668206884
:1042600047694FF00009CA4605F00F09B9F1000F80
:104270000AD105F0200038B106F0200020B1204618
:1042800002F005FDBDE8F88FB9F1000F7CD007F012
:10429000010018B906F49070002875D005F00100EF
:1042A00030B106F4807018B1206C40F00100206439
:1042B00005F0040030B107F0010018B1206C40F0A7
:1042C0000200206405F0020030B107F0010018B1CF
:1042D000206C40F00400206405F0080048B106F0AE
:1042E000200010B907F0010018B1206C40F0080060
:1042F0002064206C002846D005F0200028B106F08C
:10430000200010B1204602F0C2FC20684069C0F3D2
:10431000801A206C00F0080010B9BAF1000F2DD0FF
:10432000204602F05BFC2068406900F04000402815
:1043300020D100BF00BF2168143151E8001F21F0D7
:1043400040002168143141E80002002AF3D100BF87
:10435000A06B50B17548A16B0865A06BFEF73DFAE4
:1043600088B1A06B016D88470DE02046FFF76EFF16
:1043700009E009E02046FFF769FF04E02046FFF767
:1043800065FF002020647DE7206B012876D105F0D1
:104390001000002872D006F010000028FAD000BFEC
:1043A000002000902068006800902068406800901D
:1043B00000BF00BF2068406900F0400040285ED187
:1043C000A06B006840681FFA80F8B8F1000F54D065
:1043D000A08D404551DDA4F82E80A06BC069B0F5DA
:1043E000807F43D000BF00BF21680C3151E8001F1F
:1043F00021F4807021680C3141E80002002AF3D1D9
:1044000000BF00BF00BF2168143151E8001F21F038
:1044100001002168143141E80002002AF3D100BFF5
:1044200000BF00BF2168143151E8001F21F0400097
:104430002168143141E80002002AF3D100BF202096
:1044400084F83E000020206300BF00BF21680C31CB
:1044500051E8001F21F0100021680C3141E80002F2
:10446000002AF3D100BFA06BFEF761F9A08DE28DA9
:10447000801A81B22046FFF7E8FE03E740E0A08DF6
:10448000E18D401A1FFA80F8E08DC0B3B8F1000F3B
:1044900035D000BF00BF21680C3151E8001F21F466
:1044A000907021680C3141E80002002AF3D100BF6E
:1044B00000BF00BF2168143151E8001F21F0010046
:1044C0002168143141E80002002AF3D100BF202006
:1044D00084F83E000020206300BF00BF21680C313B
:1044E00051E8001F21F0100021680C3141E8000262
:1044F000002AF3D100BF41462046FFF7A6FEC1E6E1
:1045000005F0800030B106F0800018B1204602F0BE
:10451000DEFDB7E605F0400030B106F0400018B10E
:10452000204602F091FBADE600BFABE6A96A0008A9
:1045300010B504460CB9012010BDA06900B100E01F
:1045400000BF94F83D0028B9002084F83C002046C4
:1045500000F028F8242084F83D002068C06820F48A
:1045600000502168C860204602F00EFC20680069F7
:1045700020F49040216808612068406920F02A00FA
:10458000216848612068C06840F400502168C86014
:1045900000202064202084F83D0084F83E000020A4
:1045A000CAE7000010B586B00446142101A8FBF745
:1045B00097FFBC492068884278D100BF0020009056
:1045C000B948006840F08040B74908600846006874
:1045D00000F08040009000BF00BF00BF00200090AE
:1045E000B1481038006840F01000AF491039086039
:1045F0000846006800F01000009000BF00BF4FF4B4
:10460000C0700190022002900020039003200490CB
:104610000820059001A9A548FEF7D4FAA448A549A9
:104620000860800548604021A24881600021C16087
:104630004FF480610161002141618161C1610162CA
:104640004162FEF7FFF908B1FDF782FA00BF994811
:104650006063846300BF96483030974908604FF02C
:1046600020604860002194488160C1604FF48061FF
:1046700001610021416181614FF48071C1610021BC
:1046800001624162FEF7DEF908B1FDF761FA00BF91
:104690008948A063846300BF002205215220FEF7F1
:1046A0006BFC5220FEF758FCFAE0FFE783492068D4
:1046B000884255D100BF002000907B48006840F040
:1046C0000040794908600846006800F0004000900A
:1046D00000BF00BF00BF0020009073481038006882
:1046E00040F010007049103908600846006800F07A
:1046F0001000009000BF00BF032001900220029034
:1047000000200390032004900820059001A9674829
:10471000FEF758FA66487830694908600005486035
:10472000002167488160C1604FF480610161002110
:1047300041618161C16101624162FEF783F908B1A3
:10474000FDF706FA00BF5E48A063846300BF002245
:1047500005215320FEF710FC5320FEF7FDFB9FE0E0
:104760005849206888425CD100BF002000904E4824
:10477000001D006840F010004B49091D0860084604
:10478000006800F01000009000BF00BF00BF0020D4
:10479000009045481038006840F002004249103946
:1047A00008600846006800F00200009000BF00BFEB
:1047B000C02001900220029000200390032004906A
:1047C0000720059001A94048FEF7FCF93F48404901
:1047D00008604FF00060486000213D488160C16082
:1047E0004FF4806101610021416181614FF480716A
:1047F000C1614FF44031016200214162FEF722F9AC
:1048000008B1FDF7A5F900BF3148A063846300BF7C
:10481000002205212520FEF7AFFB2520FEF79CFB9B
:104820003EE02C49206888423AD100BF0020009029
:104830001D48001D006840F020001B49091D08604C
:104840000846006800F02000009000BF00BF00BFD5
:104850000020009014481038006840F040001249D1
:10486000103908600846006800F04000009000BF62
:1048700000BF4FF48440019002200290002003907A
:10488000032004900820059001A91348FEF79AF927
:10489000002205214720FEF76FFB4720FEF75CFB57
:1048A00006B010BD007800404038024000100240C1
:1048B00028600240D007002030080020007C004023
:1048C00090080020001001400004024040640240B3
:1048D000F0080020001401400018024070B50446A2
:1048E0000D46164694F83E00202816D105B10EB9A3
:1048F000012070BD00BF94F83C00012801D10220C6
:10490000F7E7012084F83C0000BF00202063324616
:104910002946204602F0B6FBEBE70220E9E700005B
:1049200010B5044608221E491E48FFF7D7FFA8BB52
:104930001B488178407801EB002000B21A490880BA
:1049400017480179C07801EB002000B21649488071
:104950001648007870B912488179407901EB00203F
:1049600000EE100AB8EEC00A114880ED000A0120DE
:104970000E4908700A488179407901EB002000EE69
:10498000100AB8EEC00A0B4880ED000AFCF760FC84
:10499000404200B20849088007F090FA10BD0000BC
:1049A0000000002004070020400A002050000020E2
:1049B000440000203C0000203A00002070472DE910
:1049C000F84F04460E46174699464FF0000A94F8F1
:1049D0003D0020285AD106B117B90120BDE8F88F53
:1049E00000BF94F83C00012801D10220F6E7012025
:1049F00084F83C0000BF00202064212084F83D00A2
:104A0000FEF7F6F98246A784E784A068B0F5805FD8
:104A100004D1206910B90025B04602E035464FF0B8
:104A2000000800BF002084F83C0000BF1BE0534694
:104A3000002280212046CDF8009002F078FB08B1DA
:104A40000320CBE745B9B8F80000C0F3080021689F
:104A5000486008F1020803E02878216848606D1C6E
:104A6000E08C401EE084E08C0028E0D15346002218
:104A700040212046CDF8009002F059FB08B10320F8
:104A8000ACE7202084F83D000020A7E70220A5E73E
:104A900010B5034693F83D00202823D101B10AB98F
:104AA000012010BD00BF93F83C00012801D1022075
:104AB000F7E7012083F83C0000BF19629A84DA848A
:104AC00000201864212083F83D0000BF002083F8F7
:104AD0003C0000BF1868C06840F080001C68E060BF
:104AE0000020DEE70220DCE710B50446012202497F
:104AF0000248FFF7CDFF10BD91100020C006002036
:104B000000BFFEE70B4A128812B20A81427803788E
:104B100042EA03220A804279037942EA032212B26E
:104B20008A80C278837842EA032212B24A8082796C
:104B30008A7170477002002010B50E480E49086057
:104B40000320486000210C488160C1604FF40021BF
:104B500001614FF440114161002101764176817677
:104B6000C17601774177FDF7B2FB08B1FCF7F0FFA2
:104B700010BD000000640040F804002010B50E488D
:104B80000E4908600320486000210C488160C16024
:104B90004FF4002101614FF4401141610021017681
:104BA00041768176C17601774177FDF790FB08B1B8
:104BB000FCF7CEFF10BD000000680040200500207B
:104BC00008B500BF002000901E48006840F4800037
:104BD0001C4908600846006800F48000009000BF8F
:104BE00000BF00BF002000900846006840F400109D
:104BF00008600846006800F40010009000BF00BF85
:104C0000002205210C20FEF7B7F90C20FEF7A4F9CD
:104C1000002205210E20FEF7AFF90E20FEF79CF9C9
:104C2000002205211120FEF7A7F91120FEF794F9C3
:104C3000002205213A20FEF79FF93A20FEF78CF971
:104C400008BD00003038024000B5BFB01C22364914
:104C500038A8FBF713FC002138A806F056F83349B2
:104C600008601C2230491C3131A8FBF707FC0021E9
:104C700031A806F04AF82E4908601C222A4938312A
:104C80002AA8FBF7FBFB00212AA806F03EF82949D9
:104C900008601C222449543123A8FBF7EFFB0021B4
:104CA00023A806F032F8244908601C221E497031FE
:104CB0001CA8FBF7E3FB00211CA806F026F81F49FF
:104CC00008601C2218498C3115A8FBF7D7FB00217E
:104CD00015A806F01AF81A4908601C221249A831D2
:104CE0000EA8FBF7CBFB00210EA806F00EF8154925
:104CF00008601C220C49C43107A8FBF7BFFB002148
:104D000007A806F002F8104908601C220649E031A5
:104D10006846FBF7B3FB0021684605F0F6FF0B4938
:104D200008603FB000BD000078DD0008540000209E
:104D3000580000205C00002060000020640000207B
:104D4000680000206C00002070000020740000202B
:104D500000B587B0142102A8FBF7C2FB00BF0020FA
:104D600001905448006840F010005249086008461D
:104D7000006800F01000019000BF00BF00BF0020DD
:104D800001900846006840F040000860084600684E
:104D900000F04000019000BF00BF00BF0020019064
:104DA0000846006840F0010008600846006800F00E
:104DB0000100019000BF00BF00BF00200190084625
:104DC000006840F0020008600846006800F0020039
:104DD000019000BF00BF00BF00200190084600689E
:104DE00040F0080008600846006800F008000190E4
:104DF00000BF00BF00BF002001900846006840F4DB
:104E0000807008600846006800F48070019000BF60
:104E100000BF00BF002001900846006840F08000FD
:104E200008600846006800F08000019000BF00BFE5
:104E300000BF002001900846006840F02000086094
:104E40000846006800F02000019000BF00BF00226B
:104E500040211948FDF7C6FF012002900020039071
:104E60000120049002A91548FDF7ACFE40200290F5
:104E70000120039000200490059002A90E48FDF740
:104E8000A1FE4FF4E0500290002003900120049016
:104E900002A90B48FDF796FE4FF440400290002017
:104EA00003900120049002A90648FDF78BFE07B08D
:104EB00000BD0000303802400014024000200240D3
:104EC000001C0240000C024010B50E480E4908605C
:104ED0004FF48270486000210B488160C16001611D
:104EE00041614FF4007181613021C1610021016293
:104EF000416281620A21C162FEF762FC08B1FCF7DF
:104F000027FE10BD005001404805002000B595B0B7
:104F1000002011901290139014900F9010901C216B
:104F200008A8FBF7DDFA20216846FBF7D9FA2B48E1
:104F30002B490860A82048600021294881604FF46F
:104F40007A71C1600021016141618161FEF776FDE6
:104F500008B1FCF7FDFD4FF48050119011A92048D5
:104F6000FEF75CFE08B1FCF7F3FD1D48FFF7A5F85E
:104F700008B1FCF7EDFD00200F9010900FA9184824
:104F8000FEF702FD08B1FCF7E3FD60200890002069
:104F900009900A900B900C900D900E90042208A995
:104FA0000F48FFF708F808B1FCF7D2FD0020009089
:104FB00001900290039004904FF40050059000205F
:104FC000079069460648FEF7A5FC08B1FCF7C0FD4E
:104FD0000348FEF775FF15B000BD0000000001405A
:104FE000A005002000B58DB0002009900A900B901C
:104FF0000C90079008901C216846FBF771FA4FF05F
:1050000080402B4908605320486000212848816077
:1050100044F61F61C160002101618161FEF70EFD50
:1050200008B1FCF795FD4FF48050099009A920487C
:10503000FEF7F4FD08B1FCF78BFD1D48FFF73DF8C6
:1050400008B1FCF785FD00200790089007A91848D3
:10505000FEF79AFC08B1FCF77BFD60200090002071
:10506000019002900490002269461148FEF7A3FFC8
:1050700008B1FCF76DFD042269460D48FEF79BFF61
:1050800008B1FCF765FD082269460948FEF793FF61
:1050900008B1FCF75DFD0C2269460548FEF78BFF61
:1050A00008B1FCF755FD0248FEF70AFF0DB000BD40
:1050B000E80500201CB50020009001900E480F4923
:1050C00008602920486000210C48816040F2E731E7
:1050D000C16000218161FEF7B1FC08B1FCF738FD29
:1050E00000200090019069460448FEF74DFC08B18D
:1050F000FCF72EFD1CBD000000140040300600200F
:1051000000B595B0002011901290139014900F905C
:1051100010901C2108A8FBF7E3F920216846FBF753
:10512000DFF9374837490860A72048600021354833
:10513000816044F61F61C1600021016141618161AC
:10514000FEF77CFC08B1FCF703FD4FF48050119092
:1051500011A92C48FEF762FD08B1FCF7F9FC2948BB
:10516000FEF7ABFF08B1FCF7F3FC00200F901090A6
:105170000FA92448FEF708FC08B1FCF7E9FC602001
:105180000890002009900A900B900C900D900E90C2
:10519000002208A91B48FEF70EFF08B1FCF7D8FC57
:1051A000042208A91748FEF706FF08B1FCF7D0FC57
:1051B000082208A91348FEF7FEFE08B1FCF7C8FC58
:1051C0000C2208A90F48FEF7F6FE08B1FCF7C0FC58
:1051D0000020009001900290039004904FF4005042
:1051E00005900020079069460648FEF793FB08B13A
:1051F000FCF7AEFC0348FEF763FE15B000BD0000EF
:10520000000401407806002010B50B480B490860E7
:105210004FF4E1304860002108488160C1600161BD
:105220000C21416100218161C161FFF781F908B161
:10523000FCF78EFC10BD000000780040C006002086
:1052400010B50B480B4908604FF4E130486000216D
:1052500008488160C16001610C21416100218161C8
:10526000C161FFF765F908B1FCF772FC10BD0000E1
:10527000007C00400407002010B50A480A49086075
:105280000A484860002108488160C16001610C2122
:10529000416100218161C161FFF74AF908B1FCF762
:1052A00057FC10BD0010014048070020A0860100F7
:1052B00010B50B480B4908604FF4E13048600021FD
:1052C00008488160C16001610C2141610021816158
:1052D000C161FFF72DF908B1FCF73AFC10BD0000E1
:1052E000001401408C07002000BFFEE700BFFEE76E
:1052F00000BF012005F0F8FCFBE770B5054600246F
:105300001FE004EB440101EB041205F5437101EBCE
:10531000820000F08BFB04EB440101EB041205F268
:105320003C4101EB820000F081FB04EB440101EB06
:10533000041205F5EE7101EB820000F077FB601CB2
:10534000C4B2042CDDDB70BDB0EE401A10B99FED85
:10535000560A704790ED100A80ED110A90ED0F0A81
:1053600080ED100AC0ED060A80ED071A30EEC10A82
:1053700080ED0F0A90ED0F0ADFED4C1AB4EEE10A52
:10538000F1EE10FA07DD90ED0F0ADFED491A30EE6D
:10539000610A80ED0F0A90ED0F0ADFED461AB4EEB8
:1053A000E10AF1EE10FA07D290ED0F0ADFED401A94
:1053B00030EE210A80ED0F0A90ED010AD0ED0F1AB0
:1053C00020EE210A80ED090A90ED0A0AD0ED021ABA
:1053D00090ED0F2A01EE820A80ED0A0A90ED0D0A87
:1053E00080ED0E0A90ED0C0A80ED0D0A90ED0F0A8B
:1053F000D0ED101A30EE610A80ED0C0A90ED030A30
:10540000D0ED0C1A20EE210A80ED0B0A90ED0A0A6D
:10541000D0ED051AB4EEE10AF1EE10FA04DD90EDDC
:10542000050A80ED0A0A10E090ED0A0AD0ED051A8F
:10543000F1EE611AB4EEE10AF1EE10FA05D290ED48
:10544000050AB1EE400A80ED0A0A90ED090AD0ED96
:105450000A1A30EE210AD0ED0B1A30EE210A80ED47
:10546000080A90ED080AD0ED041AB4EEE10AF1EE54
:1054700010FA04DD90ED040A80ED080A10E090EDCA
:10548000080AD0ED041AF1EE611AB4EEE10AF1EE69
:1054900010FA05D290ED040AB1EE400A80ED080A38
:1054A00090ED080A55E7000000000000000080456C
:1054B00000F8FF45000080C570B52DED028B044655
:1054C000B0EE408AF0EE608A0D4624B99FED7F0A67
:1054D000BDEC028B70BD94ED100A84ED110A94EDC1
:1054E0000F0A84ED100AC4ED068A84ED078ABCEE2B
:1054F000C80A10EE102A91B2BCEEE80A10EE102A8B
:1055000090B22A4604F018FD84ED0F0A2078002896
:1055100075D194ED010AD4ED0F0A20EE200A84ED36
:10552000090A94ED0A0AD4ED020A94ED0F1A00EE6E
:10553000810A84ED0A0A94ED0D0A84ED0E0A94EDB9
:105540000C0A84ED0D0A94ED0F0AD4ED100A30EE2A
:10555000600A84ED0C0A94ED030AD4ED0C0A20EEE7
:10556000200A84ED0B0A94ED0A0AD4ED050AB4EE84
:10557000E00AF1EE10FA04DD94ED050A84ED0A0A62
:1055800010E094ED0A0AD4ED050AF1EE600AB4EEDB
:10559000E00AF1EE10FA05D294ED050AB1EE400AE8
:1055A00084ED0A0A94ED090AD4ED0A0A30EE200AC5
:1055B000D4ED0B0A30EE200A84ED080A94ED080AB7
:1055C000D4ED040AB4EEE00AF1EE10FA04DD94ED35
:1055D000040A84ED080A76E094ED080AD4ED040A82
:1055E000F1EE600AB4EEE00AF1EE10FA6BD294ED3F
:1055F000040AB1EE400A84ED080A64E0FFE720786F
:10560000012860D194ED0F0AD4ED100A30EE600A43
:10561000D4ED010A20EE200A84ED090A94ED020A75
:10562000D4ED0F0A20EE200A84ED0A0A94ED0D0A4B
:1056300084ED0E0A94ED0C0A84ED0D0A94ED0F0A28
:10564000D4ED100AB0EE001A01EE600AD4ED110A92
:1056500030EE200A84ED0C0A94ED030AD4ED0C0A16
:1056600020EE200A84ED0B0A94ED090AD4ED0A0A13
:1056700030EE200AD4ED0B0A30EE200AD4ED080AF1
:1056800030EE200A84ED080A94ED080AD4ED040AED
:10569000B4EEE00AF1EE10FA04DD94ED040A84EDB4
:1056A000080A10E094ED080AD4ED040AF1EE600A4D
:1056B000B4EEE00AF1EE10FA05D294ED040AB1EE70
:1056C000400A84ED080A94ED080A01E70000000092
:1056D000B0EE401A002110B99FEDD00A7047427811
:1056E0000ABB90ED0F0ADFEDCE1AB4EEE10AF1EE3F
:1056F00010FA07DD90ED0F0ADFEDCA1A30EE610AED
:1057000080ED0F0A90ED0F0ADFEDC71AB4EEE10A43
:10571000F1EE10FA07D290ED0F0ADFEDC21A30EE6B
:10572000210A80ED0F0A90ED100A80ED110A90ED2C
:105730000F0A80ED100AC0ED060A80ED071AC1F1CC
:10574000010200EE102AB8EEC00A70EEC11A60EE37
:10575000211A90ED102A00EE101AB8EE400A40EE21
:10576000021AC0ED0F1A0278002A75D190ED010AD5
:10577000D0ED0F1A20EE210A80ED090A90ED0A0AF9
:10578000D0ED021A90ED0F2A01EE820A80ED0A0A8E
:1057900090ED0D0A80ED0E0A90ED0C0A80ED0D0AD9
:1057A00090ED0F0AD0ED101A30EE610A80ED0C0A70
:1057B00090ED030AD0ED0C1A20EE210A80ED0B0AC1
:1057C00090ED0A0AD0ED051AB4EEE10AF1EE10FAF6
:1057D00004DD90ED050A80ED0A0A10E090ED0A0A5A
:1057E000D0ED051AF1EE611AB4EEE10AF1EE10FA0D
:1057F00005D290ED050AB1EE400A80ED0A0A90ED5F
:10580000090AD0ED0A1A30EE210AD0ED0B1A30EE5B
:10581000210A80ED080A90ED080AD0ED041AB4EED2
:10582000E10AF1EE10FA04DD90ED040A80ED080AB9
:10583000F0E090ED080AD0ED041AF1EE611AB4EE32
:10584000E10AF1EE10FAF3D290ED040AB1EE400A4B
:1058500080ED080ADEE0FFE70278012A61D190EDD1
:105860000F0AD0ED101A30EE610AD0ED011A20EEC9
:10587000210A80ED090A90ED020AD0ED0F1A20EE00
:10588000210A80ED0A0A90ED0D0A80ED0E0A90EDD6
:105890000C0A80ED0D0A90ED0F0AD0ED101AB0EE53
:1058A000002A02EE610AD0ED111A30EE210A80EDD5
:1058B0000C0A90ED030AD0ED0C1A20EE210A80EDBF
:1058C0000B0A90ED090AD0ED0A1A30EE210AD0ED4C
:1058D0000B1A30EE210AD0ED081A30EE210A80EDC5
:1058E000080A90ED080AD0ED041AB4EEE10AF1EED0
:1058F00010FA04DD90ED040A80ED080A8AE090EDCC
:10590000080AD0ED041AF1EE611AB4EEE10AF1EEE4
:1059100010FA7FD290ED040AB1EE400A80ED080A39
:1059200078E00278022A75D190ED0F0AD0ED101AB6
:1059300030EE610AD0ED011A20EE210A80ED090A4D
:1059400090ED020AD0ED0F1A20EE210A80ED0A0A2E
:1059500090ED0D0A80ED0E0A90ED0C0A80ED0D0A17
:1059600090ED0F0AD0ED101A30EE610A80ED0C0AAE
:1059700090ED030AD0ED0C1A20EE210A80ED0B0AFF
:1059800090ED0A0AD0ED051AB4EEE10AF1EE10FA34
:1059900004DD90ED050A80ED0A0A10E090ED0A0A98
:1059A000D0ED051AF1EE611AB4EEE10AF1EE10FA4B
:1059B00005D290ED050AB1EE400A80ED0A0A90ED9D
:1059C000090AD0ED0A1A30EE210AD0ED0B1A30EE9A
:1059D000210A80ED080A90ED080AD0ED041AB4EE11
:1059E000E10AF1EE10FA04DD90ED040A80ED080AF8
:1059F00010E090ED080AD0ED041AF1EE611AB4EE51
:105A0000E10AF1EE10FA05D290ED040AB1EE400A77
:105A100080ED080A90ED080A60E600000000000032
:105A2000000034430000B443000034C300B97047A1
:105A30009FED100A80ED110A80ED100A80ED0F0A2B
:105A40009FED0C0A80ED0E0A80ED0D0A80ED0C0A28
:105A50009FED080A80ED0B0A80ED0A0A80ED090A25
:105A600080ED080A9FED030A80ED060A80ED070A23
:105A700000BFDCE70000000000B102B97047017010
:105A800092ED001A80ED011A92ED011A80ED021AD2
:105A900092ED021A80ED031A80ED040AC0ED050AAA
:105AA0009FED0C1A80ED0E1A80ED0D1A80ED0C1A88
:105AB0009FED081A80ED081A80ED0B1A80ED0A1A86
:105AC00080ED091A80ED111A80ED101A80ED0F1A81
:105AD00000BFD3E70000000070B50446002520E0B9
